:0200000280007C
:10000000602607205D0C0800590C0800590C0800F8
:10001000590C0800590C0800590C08000000000099
:10002000000000000000000000000000590C080063
:10003000590C080000000000590C0800590C080079
:10004000590C0800590C0800590C0800590C0800FC
:10005000590C0800590C0800590C0800590C0800EC
:1000600059070800590C080000000000010B0800A7
:10007000150B0800290B08003D0B080000000000CC
:1000800000000000590C0800590C0800590C080029
:10009000590C0800590C0800590C0800590C0800AC
:1000A000590C080000000000590C0800590C080009
:1000B000590C0800590C0800590C0800590C08008C
:1000C000590C0800590C0800590C0800590C08007C
:1000D000590C0800590C0800590C0800590C08006C
:1000E000590C0800590C0800590C0800710308004D
:1000F000590C080010B5054C237833B9044B13B1E3
:100100000448AFF300800123237010BD6C05072065
:1001100000000000941008000C4B43B10C4810B5CF
:100120000C49AFF300800C48036823B910BD0A489E
:10013000036833B97047094B002BF7D0BDE8104076
:100140001847064B002BF5D0184700BF00000000F1
:1001500094100800700507209410080000000000AB
:100160002DE9F0435518082998BF082A64D80E468F
:10017000082D61DC324A136823F001031360136910
:10018000304B4FF440745C641C6F24F003041C6714
:1001900003245C605C66A3F500632B4CC3F80C4140
:1001A000D3F8004144F40064C3F800415061A9420F
:1001B00040DC0A460024A146DFF884804FF0005C52
:1001C0004FF0807E0127530103F1402000F53020DD
:1001D000C0F804924344C3F808C2C0F800E2D3F860
:1001E0001C0240F40000C3F81C0207FA02F31C438F
:1001F00001329542E7DA81B1002311494FF00055F1
:100200004FF0407001EB4312C2F8085203F11002A4
:100210005201885001339E42F4D1094B5C604FF487
:1002200000610A4A51601A6842F001021A60002017
:10023000BDE8F0830024DEE70120BDE8F08300BFC5
:1002400000400B40000E0E402B10001000E100E0BB
:1002500008B502220121014B984708BD6101080041
:100260004B0103F1402303F53023D3F8103213F48C
:10027000000F36D003881C4A02EA834242F0005243
:100280004B0103F1402303F53023C3F808224388D0
:10029000072B84BF07234380C27983791B0443EA79
:1002A000026302791343427943EA0223490101F1CF
:1002B000402101F53021C1F81432C27A837A1B043F
:1002C00043EA0263027A1343427A43EA0223C1F803
:1002D000183243881B0443F40003C1F81C32002089
:1002E00070470120704700BF0000FC1F4B0103F165
:1002F000402303F53023D3F8103213F4000F33D02A
:1003000030B44B0103F1402303F53023D3F814221A
:10031000D3F81842D3F80852C5F38A450580D3F8BC
:100320001032C3F3034343801D465BB10430002306
:10033000032BD9BF0270120A0470240A0133013062
:10034000AB42F5D1094B01F1100252014FF0807020
:10035000985003EB4111D1F81C3243F40003C1F86B
:100360001C32002030BC70470120704700400B4019
:1003700010B584B0154B1C6914F0060F10D014F0A2
:10038000020F1AD114F0040F1CD0022101A8104B47
:100390009847BDF806201AB1002301339342FCD1DF
:1003A00014F0010F02D00122084B9A604FF4006252
:1003B000084BC3F8842104B010BD012101A8044BEF
:1003C0009847E6E70448054B9847E2E700400B40B2
:1003D000ED02080000E100E018100800A90608007E
:1003E0002DE9F8430D46161E48DD0A78002A35D05F
:1003F0000A460024013412F8011F0029FAD1A6424E
:100400002DDC002403F00202002A0CBF4FF020086C
:100410004FF0300813F0010323D1002C28DD2646CD
:100420005FFA88F9184F4846B847013EFBD1287853
:1004300088B1154FB847013415F8010F0028F9D1DC
:10044000002E08DD35465FFA88F80F4F4046B84762
:10045000013DFBD134442046BDE8F8830024341B21
:10046000D0E72646287808B10024E2E70024E7E731
:1004700026461C46DBE74FF02008D8E713F00104BE
:10048000F9D04FF02008EDE735070800F0B585B04A
:10049000074681B30C460BB10A2A38D000238DF8E9
:1004A0000F300026002946D00DF10F050C993A397E
:1004B000B4FBF2F302FB1343092BC8BF5B183033C4
:1004C00005F8013DB4FBF2F4002CF1D156B10A9BC2
:1004D0001BB10B9B13F0020F25D12D2305F8013C16
:1004E000013D00260B9B0A9A29463846144CA0472A
:1004F000304405B0F0BD30238DF8043000238DF872
:1005000005300B9B0A9A01A90D4CA047F1E7002981
:10051000C4DA4C4200238DF80F300DF10F05002C8A
:10052000D5D00126C0E72D20064B98470A9B013BFA
:100530000A930126D6E71E460DF10F05D2E700BF4C
:10054000E1030800350708002DE9F04F87B0804629
:100550000B78002B00F094808B46174600254E4EFA
:10056000DFF83CA1DFF83C9146E0002270E03968FA
:1005700004374A48002908BF01464046D047054491
:1005800035E039680437612002900193009201231D
:100590000A224046C847054429E0396804376120EB
:1005A000029001930092002310224046C847054460
:1005B0001DE0396804374120029001930092002326
:1005C00010224046C847054411E0396804376120CD
:1005D00002900193009200230A224046C847054436
:1005E00005E0A3469BF80000B04701355C4604F1E6
:1005F000010B6378002B44D0252BF3D10BF10104C0
:100600009BF80130002B3CD0252BEAD02D2B06BFC8
:100610000BF10204012300232278302A05D143F094
:10062000020314F8012F302AF9D02178A1F1300209
:10063000D2B2092A99D8002202EB8202303901EBAA
:10064000420214F8011FA1F13000C0B20928F3D909
:1006500073298CD0642994D078299ED05829A8D0A9
:100660007529B2D06329C2D1396804378DF81410C6
:1006700000218DF8151005A94046D0470544B6E77E
:100680000025B8F1000F03D0D8F8003000221A700E
:10069000284607B0BDE8F08F350708004410080071
:1006A000E10308008D0408000FB400B583B004AA6C
:1006B00052F8041B01920020034B984703B05DF8E9
:1006C00004EB04B0704700BF49050800164B002238
:1006D0001A705A70154B4FF44071596459601A6F73
:1006E000186F024022F440721A6759664FF4807204
:1006F000A3F500631A6103F50073AC21196040F2A1
:10070000232119624FF40061596040F20221C3F8BD
:1007100020114FF0FF31D960E121996004490A604E
:1007200050221A60704700BFF8050720000E0E40E7
:1007300000E100E0074B5B6913F0020F08D0054BA6
:10074000D8611A46536913F4007FFBD0002070472C
:100750000120704700080E4008B5154B5B6913F087
:10076000E00F03D04FF4A871114A116013F0010F8C
:1007700012D010484278531C594203F03F0301F055
:100780003F0158BF4B4201788B4206D00849886927
:1007900008490A4490704B7008BD0748074B9847BA
:1007A000034B9A69034B59780B449A7008BD00BFFC
:1007B00000080E40F80507204C100800A9060800A4
:1007C00010B50E480E4B98473E2100200D4B984720
:1007D0000D4CA0470028FCD00C4B98470C4A0D4B01
:1007E0009A620D4CA0470028FCD010200B4B984774
:1007F0000B4B98470148024B984710BD00BD0105BF
:10080000B1000720B50B0800090C0800190C0800FE
:10081000013F0D2000060E40290C0800510B080076
:10082000F50C080010B54FF40042164B5A600B202F
:10083000154CA0470C20A0470D20A0470E20A04734
:100840004FF060513B20114CA0474FF060515520B4
:10085000A0474FF060515620A0470D496820A0479F
:100860000C495C20A0470C4A4FF440710B480C4BDC
:1008700098474FF000612B20A0474FF000612A20DD
:10088000A04710BD501A0E40390C08004509080059
:10089000790000280100002801000008000E0E4029
:1008A000150A08004264B1F1805F16D00BD849B137
:1008B000B1F1006F05D1036F016F0B4023EA020312
:1008C000036742607047B1F1405FFBD0B1F1605FF8
:1008D000F8D0B1F1205FF4D17047036F1343036781
:1008E000EFE7416412F0010F14BF4166016612F098
:1008F0000A0F14BF0162416212F0020F07D112F019
:10090000080F18BFC0F88410416101607047C0F83B
:100910008010F9E710B4019C416444B9016643B109
:10092000016542B941630161016010BC70474166D5
:10093000F5E74165F5E70163F5E7C06C7047806C4A
:100940007047000070B582B00D46430903F50013EF
:1009500003F207735C0201F0F043B3F1205F31D082
:1009600016D8B3F1006F1BD0B3F1805F16D100F041
:100970001F000126864032464FF080512046224B10
:10098000984715F0010F14BF66662666012017E030
:10099000B3F1405F21D0B3F1605F1ED000200FE0C3
:1009A00000F01F000126864032464FF000612046CD
:1009B000154B984715F0010F14BF66662666012097
:1009C00002B070BD00F01F0101262A4606FA01F1AF
:1009D00020460E4B98473046F2E705F0605200F093
:1009E0001F01012605EA06030093C5F38003B2F157
:1009F000605F14BF0022012206FA01F12046044C78
:100A0000A0473046DCE700BFA5080800E30808005F
:100A10001509080070B582B005460E46144602F06E
:100A2000F043B3F1205F27D011D8B3F1006F16D097
:100A3000B3F1805F11D10A464FF08051194B9847AE
:100A400014F0010F14BF6E662E66012012E0B3F1A0
:100A5000405F15D0B3F1605F12D000200AE00A4673
:100A60004FF000610F4B984714F0010F14BF6E66F2
:100A70002E66012002B070BD0B4B98470120F9E7AC
:100A800004F0605204F001030093C4F38003B2F158
:100A9000605F14BF0022012231462846034CA04764
:100AA0000120E7E7A5080800E30808001509080089
:100AB0002DE9F041044688460E4B984705462046EE
:100AC0000D4B9847054013D00C4C04F1600603E031
:100AD000B4420DD010345DB120684045F8D1616852
:100AE0002942F5D0E3689847636825EA0305EFE7F4
:100AF000BDE8F0813B0908003F0908008805072090
:100B000008B50B210148024B984708BD000E0E4066
:100B1000B10A080008B50C210148024B984708BDEE
:100B200000100E40B10A080008B50D210148024B23
:100B3000984708BD00120E40B10A080008B50E2102
:100B40000148024B984708BD00140E40B10A080046
:100B5000174A136B23F0700318431063936E13F05E
:100B6000080F0AD14FF4006311498A6E12F0080F82
:100B700003D1013BF9D1012070470D4A136B23F0DB
:100B8000030343F002031363936E13F0080F0AD1BB
:100B90004FF4006306498A6E12F0080F05D1013B3D
:100BA000F9D101207047002070470020704700BF36
:100BB00000060E40C8B9114A136A090289B223F42B
:100BC0005C1323F0030343F45C1343F001030B4372
:100BD0001362936E13F0010FFBD0084A136A43F0BF
:100BE0009B7343F480331362704704490B6A044AD1
:100BF0001A40044B13430B62704700BF00060E40BF
:100C0000FCFFC8FE02003701024B986E00F48030F2
:100C1000704700BF00060E404FF00052014B9A6231
:100C2000704700BF00060E40024B986E00F00200B5
:100C3000704700BF00060E4000F07F00054BC3F870
:100C40000C01D3F80C2142F01022C3F80C21002033
:100C5000704700BF00060E40FEE7000008B51C4BC1
:100C60001C4A9A4210D01C4B194A9A420CD2013BA2
:100C70009B1A23F0030304331344164951F8040B61
:100C800042F8040B9A42F9D1144B154A9A420AD2FF
:100C9000013B9B1A23F0030304331344002142F861
:100CA000041B9342FBD10F4B23F0604222F07F02E2
:100CB0000D498A6003F16043B3F5801F03D28B684E
:100CC00043F000538B60094B9847094B9847FEE768
:100CD00000000720941008006C050720600607201C
:100CE0006C0507200000080000ED00E0A90E0800D8
:100CF0000D0E08003D4B1B6B03F00303032B0ED8B6
:100D0000DFE803F0021C3838394B5B6913F0800FC1
:100D100014BF4FF400424FF4FA42364B1A60334B83
:100D20001B6B03F07003702B57D0304B1A6B31499B
:100D3000C2F302120B68D3400B6070472B4B1B6A47
:100D400013F0807F03D02C4A2A4B1A60E7E72B4A26
:100D5000284B1A60254B1B6A03F07003102B05D03B
:100D6000202BDCD1244A234B1A60D8E7244A214B9C
:100D70001A60D4E71D4B1B6A13F0807F0CD01E4A0B
:100D80001C4B1A60194B1B6B03F00303022B16D08C
:100D90001C4A184B1A60C2E7184A164B1A60134BCC
:100DA0001B6A03F07003102B05D0202BEAD1124AE6
:100DB000104B1A60E6E7124A0E4B1A60E2E70B4A44
:100DC000916A926A0B48C1F30A41036801FB03333D
:100DD000D2B2B3FBF2F30360A1E7064A13680A49F3
:100DE000A1FB03135B081360704700BF00060E40B1
:100DF000101A0E4038010720001BB70000093D0003
:100E000000127A00001C4E0EABAAAAAA70B584B0DC
:100E10001B4B98471B4B98471B4B98471B481C4B39
:100E200098471C4CA0470D20A0470A20A0471A4B0A
:100E30001A6842F400221A601A6942F400221A6108
:100E40001A6B42F400221A630C23ADF8043002231B
:100E5000ADF8063063238DF8083066238DF809302D
:100E60000E4E0F4D002101A8B0473030C0B2A04750
:100E70000D20A0470A20A04728460A4B9847F1E7D3
:100E8000C107080025080800CD06080061052900F3
:100E90005102080035070800000E0E4061020800EC
:100EA000808D5B000100072070B50F4E0F4D761B43
:100EB000B61018BF002405D0013455F8043B9847FC
:100EC000A642F9D10A4E0B4D00F0D2F8761BB610AF
:100ED00018BF002406D0013455F8043B9847A642B9
:100EE000F9D170BD70BD00BF7C1008007C100800F7
:100EF000841008007C100800024B13B1024800F077
:100F000005B8704700000000190F080000230146D3
:100F10001A46184600F01EB838B50A4C0A4D641B34
:100F2000A4100AD004F18043013B05EB8305013C8A
:100F300055F804399847002CF9D1BDE8384000F045
:100F4000A1B800BF9410080090100800704700BFBF
:100F5000704700BF2DE9F8432C4D06462868984697
:100F60000F469146FFF7F2FF294B1C68D4F8483131
:100F7000002B3ED05A681F2A1CDC02F1010E76B10C
:100F8000012103EB8204C4F88890D3F888019140D2
:100F90000843022EC3F88801C4F8088123D0023226
:100FA000C3F804E0286843F82270FFF7D1FF00205F
:100FB000BDE8F883174B0BB34FF4C870AFF3008054
:100FC0000346D8B10020D4F848114FF0010E586004
:100FD00019600246C4F84831C3F88801C3F88C018F
:100FE000002EDCD0CCE7D3F88C010143C3F88C1180
:100FF000D5E704F5A673C4F84831BBE72868FFF7C6
:10100000A7FF4FF0FF30BDE8F88300BF6805072059
:101010006C1008000000000043414E30206D6573E5
:1010200073616765206172726976656420696E20FC
:101030006E6F6E2D75736564206D61696C626F787B
:101040000A0D0000286E756C6C2900004552523A5A
:1010500020554152542052582062756666657220B0
:1010600069732066756C6C0A0D0000004001072052
:10107000F8B500BFF8BC08BC9E467047F90E0800E2
:1010800019010800F8B500BFF8BC08BC9E467047BF
:04109000F50008005F
:10109400BFF35F8F0138FBD1704700004FF48063CA
:1010A400204A136002F5007213601F4B1B6A13F091
:1010B400807F07D11D4A1C4B1A621A46936E13F0A7
:1010C400010FFBD01A4A184B1A621A46936E13F496
:1010D400803FFBD0144A136B23F0030343F0010356
:1010E4001363936E13F0080FFBD0124A0E4B9A62EF
:1010F4001A46936E13F0020FFBD011220A4B1A63A7
:101104001A46936E13F0080FFBD01222064B1A6393
:101114001A46936E13F0080FFBD0074A074B1A6068
:10112400704700BF000A0E4000060E400908370051
:1011340009083701013F0D2000BD010538010720D2
:101144001B4B984215D91B4B984219D91A4B9842FC
:101154001ED91A4B984223D9194B984294BF4FF485
:1011640080634FF4A063174A136002F500721360A2
:1011740070470023134A136002F50072136070472E
:101184004FF480730F4A136002F5007213607047C6
:101194004FF400730B4A136002F50072136070473A
:1011A4004FF44073074A136002F5007213607047EE
:1011B400BFEA21017FF0FA02FF8FD003FFB3C4041A
:1011C4007F4A5D05000A0E4000093D000000000052
:1011D400000000002C04072094040720FC040720CE
:1011E40000000000000000000000000000000000FB
:1011F40000000000000000000000000000000000EB
:1012040000000000000000000000000000000000DA
:1012140000000000000000000000000000000000CA
:1012240000000000000000000000000000000000BA
:1012340000000000000000000000000000000000AA
:10124400000000000000000000000000000000009A
:10125400000000000000000000000000000000008A
:10126400000000000000000000000000000000007A
:101274000000000000000000010000000000000069
:101284000E33CDAB34126DE6ECDE05000B0000002E
:10129400000000000000000000000000000000004A
:1012A400000000000000000000000000000000003A
:1012B400000000000000000000000000000000002A
:1012C400000000000000000000000000000000001A
:0C15F40000000000000000003C06072082
:0400000380000C5D10
:00000001FF
