:0200000280007C
:10000000D0080020E9030800E5030800E503080024
:10001000E5030800E5030800E50308000000000010
:10002000000000000000000000000000E5030800E0
:10003000E503080000000000E5030800E5030800F0
:10004000E5030800E5030800E5030800E5030800F0
:10005000E5030800E5030800E5030800E5030800E0
:10006000290C0800E503080000000000E503080073
:10007000E5030800E5030800E503080000000000B0
:1000800000000000E5030800E5030800E5030800A0
:10009000E5030800E5030800E5030800E5030800A0
:1000A000E503080000000000E5030800E503080080
:1000B000E5030800E5030800E5030800E503080080
:1000C000E5030800E5030800E5030800E503080070
:1000D000E5030800E5030800E5030800E503080060
:1000E000E5030800E5030800E50308002D03080008
:1000F000E503080010B5054C237833B9044B13B160
:100100000448AFF300800123237010BD34040020A5
:1001100000000000A80E08000C4B43B10C4810B5BD
:100120000C49AFF300800C48036823B910BD0A489E
:10013000036833B97047094B002BF7D0BDE8104076
:100140001847064B002BF5D0184700BF00000000F1
:10015000A80E080038040020A80E080000000000C7
:100160000A4AD2F8003143F02003C2F80031084BAC
:100170005A6842F080025A601A6942F001021A611C
:100180001A6842F002021A60704700BF00060E4073
:1001900000000C40034B186DB0F5FA6FACBF0020A7
:1001A0000120704700000C402DE9F0435518082944
:1001B00098BF082A64D80E46082D61DC324A1368BD
:1001C00023F0010313601369304B4FF440745C64F7
:1001D0001C6F24F003041C6703245C605C66A3F5B9
:1001E00000632B4CC3F80C41D3F8004144F4006485
:1001F000C3F800415061A94240DC0A460024A146F0
:10020000DFF884804FF0005C4FF0807E01275301BF
:1002100003F1402000F53020C0F804924344C3F8B5
:1002200008C2C0F800E2D3F81C0240F40000C3F892
:100230001C0207FA02F31C4301329542E7DA81B14E
:10024000002311494FF000554FF0407001EB43126D
:10025000C2F8085203F110025201885001339E4245
:10026000F4D1094B5C604FF400610A4A51601A688E
:1002700042F001021A600020BDE8F0830024DEE7AE
:100280000120BDE8F08300BF00400B40000E0E408F
:100290002B10001000E100E008B502220121014B03
:1002A000984708BDA90108004B0103F1402303F55D
:1002B0003023D3F8103213F4000F33D030B44B0195
:1002C00003F1402303F53023D3F81422D3F8184266
:1002D000D3F80852C5F38A450580D3F81032C3F32A
:1002E000034343801D465BB104300023032BD9BF79
:1002F0000270120A0470240A01330130AB42F5D1B6
:10030000094B01F1100252014FF08070985003EB3D
:100310004111D1F81C3243F40003C1F81C32002013
:1003200030BC70470120704700400B4010B584B0CE
:10033000214B1C6914F0060F23D014F0020F2DD1AD
:1003400014F0040F2FD0022101A81C4B9847BDF8D0
:1003500006201AB1002301339342FCD19DF80830E6
:10036000132B24D9502B8CBF512100210120144B79
:1003700098479DF80A20134B1A709DF80B20124BDA
:100380001A7014F0010F02D001220B4B9A604FF447
:1003900000620E4BC3F8842104B010BD012101A8F6
:1003A000064B9847D3E70A480A4B9847CFE75121B5
:1003B0000020034B9847DCE700400B40A9020800EF
:1003C000A9060800640400205004002000E100E0B9
:1003D000000E0800910A0800034610B100BF013B5F
:1003E000FCD17047FEE7000008B5184B184A9A4246
:1003F00010D0184B154A9A420CD2013B9B1A23F09D
:10040000030304331344124951F8040B42F8040B5C
:100410009A42F9D1104B114A9A420AD2013B9B1AD7
:1004200023F0030304331344002142F8041B9342D6
:10043000FBD10B4B23F0604323F07F03094A936009
:10044000094B9847094B9847FEE700BF0000002082
:10045000A80E080034040020D0040020340400203A
:100460000000080000ED00E0910C080015050800F0
:100470004FF48063204A136002F5007213601F4B33
:100480001B6A13F0807F07D11D4A1C4B1A621A4663
:10049000936E13F0010FFBD01A4A184B1A621A46DA
:1004A000936E13F4803FFBD0144A136B23F00303C5
:1004B00043F001031363936E13F0080FFBD0124A4D
:1004C0000E4B9A621A46936E13F0020FFBD0112264
:1004D0000A4B1A631A46936E13F0080FFBD01222D0
:1004E000064B1A631A46936E13F0080FFBD0074AA7
:1004F000074B1A60704700BF000A0E4000060E400E
:100500000908370009083701013F0D2000BD01052A
:1005100000000020F8B51D4B98471D4B98471D4B18
:1005200098471D4B98471D4B98471D481D4B9847B2
:100530001D481E4B98471E4A536843F400435360BE
:1005400000201C4B98471C4B98471C4E1C4F174DC6
:100550000CE01C4C20781C4B984721781B48A8477E
:100560001B4B187800F001001A4B9847B047002841
:10057000EFD03B78002BECD179780131C9B279709A
:100580001548A84701233B70E3E700BF710408004A
:100590009D0B0800B50A080061010800DD05080090
:1005A00061052900990208002C0E0800910A080034
:1005B000501A0E402D0708005D0B08009501080039
:1005C0005104002050040020090B0800480E0800C8
:1005D000640400207D0B0800380E080038B51E4C5E
:1005E0001E4BC4F8E4301E48036943F40053036112
:1005F0001C4B1A6842F400721A601A6942F40072C5
:100600001A611A6B42F400721A634FF480621A6026
:100610001A61012119601961596304221A601A6173
:1006200002221A601A614025C0F80051A0F5C330BB
:1006300001604FF485354560456A154345620261A6
:100640004FF4FF70206220665A631A63064A142032
:10065000064B984738BD00BF00120E40004F49506E
:1006600000060E4000140E40540400208D070800C0
:1006700028B1064A136B43F4806313637047034A3F
:10068000536B43F480635363704700BF00140E4004
:10069000642828BF6420C0EB0010400080B2014BEA
:1006A0001862704700800C4010B50C46024B98470A
:1006B000E0B2024B984710BD710608009106080091
:1006C0002DE9F843164C4FF4807323608023236098
:1006D000402323602023236010232360082323600A
:1006E00004272760022323600E4E4FF00108C6F84E
:1006F000348077634FF47A70DFF82C90C847E56B4D
:10070000ED0105F47F4537634FF47A70C847E06B1D
:10071000C6F83080C0F34700284300B2BDE8F88334
:1007200000120E4000140E40D90308002DE9F041DC
:100730000546124B98470446104FDFF84C80104E88
:1007400001E0002B13DBAC4216D0B847044642460A
:10075000014628B2B04783B2652B28BF1E202B1B51
:10076000002BEEDD81B20020064B9847EBE781B20B
:100770000120044B9847E6E7BDE8F081C106080078
:1007800099070800A9060800540400201081D160D0
:10079000002313805360704730B4D368B2F900402F
:1007A000556803FB0454401A00B2108000FB034359
:1007B0005360B2F9081000FB01300028B8BF7F3049
:1007C00040F3CF1030BC70472DE9F8430D46161E9C
:1007D00048DD0A78002A35D00A460024013412F890
:1007E000011F0029FAD1A6422DDC002403F00202E9
:1007F000002A0CBF4FF020084FF0300813F001031F
:1008000023D1002C28DD26465FFA88F9184F484688
:10081000B847013EFBD1287888B1154FB84701345D
:1008200015F8010F0028F9D1002E08DD35465FFAD2
:1008300088F80F4F4046B847013DFBD1344420466D
:10084000BDE8F8830024341BD0E72646287808B199
:100850000024E2E70024E7E726461C46DBE74FF0EA
:100860002008D8E713F00104F9D04FF02008EDE795
:10087000050C0800F0B585B0074681B30C460BB1F6
:100880000A2A38D000238DF80F300026002946D0E0
:100890000DF10F050C993A39B4FBF2F302FB134347
:1008A000092BC8BF5B18303305F8013DB4FBF2F4E7
:1008B000002CF1D156B10A9B1BB10B9B13F0020F18
:1008C00025D12D2305F8013C013D00260B9B0A9AFA
:1008D00029463846144CA047304405B0F0BD3023BB
:1008E0008DF8043000238DF805300B9B0A9A01A97E
:1008F0000D4CA047F1E70029C4DA4C4200238DF8E3
:100900000F300DF10F05002CD5D00126C0E72D20AA
:10091000064B98470A9B013B0A930126D6E71E46E1
:100920000DF10F05D2E700BFC9070800050C08004C
:100930002DE9F04F87B080460B78002B00F09480B3
:100940008B46174600254E4EDFF83CA1DFF83C9160
:1009500046E0002270E0396804374A48002908BFA1
:1009600001464046D047054435E0396804376120E8
:1009700002900193009201230A224046C847054491
:1009800029E0396804376120029001930092002326
:1009900010224046C84705441DE03968043741200D
:1009A000029001930092002310224046C84705445C
:1009B00011E039680437612002900193009200230E
:1009C0000A224046C847054405E0A3469BF80000BC
:1009D000B04701355C4604F1010B6378002B44D02D
:1009E000252BF3D10BF101049BF80130002B3CD0F7
:1009F000252BEAD02D2B06BF0BF102040123002387
:100A00002278302A05D143F0020314F8012F302A4E
:100A1000F9D02178A1F13002D2B2092A99D8002266
:100A200002EB8202303901EB420214F8011FA1F1FE
:100A30003000C0B20928F3D973298CD0642994D02E
:100A400078299ED05829A8D07529B2D06329C2D15F
:100A5000396804378DF8141000218DF8151005A998
:100A60004046D0470544B6E70025B8F1000F03D053
:100A7000D8F8003000221A70284607B0BDE8F08F81
:100A8000050C08004C0E0800C9070800750808008E
:100A90000FB400B583B004AA52F8041B01920020E1
:100AA000034B984703B05DF804EB04B0704700BFF8
:100AB00031090800124A136843F01003136002F56D
:100AC0003762136843F4002313606C3A136843F4ED
:100AD000002313602A220B4B1A6040F20B1203F51D
:100AE00028731A6044F620620C331A6044F6F80248
:100AF000083B1A602022A3F528731A60704700BFD4
:100B000000070E400040094038B54FF4527303FB14
:100B100000F00E4C84FB00342318C417C4EBE3141C
:100B200004F5617425B2294609480A4B9847A4F593
:100B30006174A4B2B4F5527F01D9012038BDC5F566
:100B40009C452035044B1D6038BD00BF81808080EE
:100B5000540E0800910A0800A4420940064B1A6E80
:100B600042F400721A661A6842F400721A601A6936
:100B700042F400721A61704700120E40012805D03D
:100B8000054A136B43F4007313637047024A536BB7
:100B900043F400735363704700120E40164B00225B
:100BA0001A705A70154B4FF44071596459601A6F9E
:100BB000186F024022F440721A6759664FF480722F
:100BC000A3F500631A6103F50073AC21196040F2CC
:100BD000232119624FF40061596040F20221C3F8E9
:100BE00020114FF0FF31D960E121996004490A607A
:100BF00050221A60704700BF68040020000E0E40AB
:100C000000E100E0074B5B6913F0020F08D0054BD1
:100C1000D8611A46536913F4007FFBD00020704757
:100C20000120704700080E4008B5154B5B6913F0B2
:100C3000E00F03D04FF4A871114A116013F0010FB7
:100C400012D010484278531C594203F03F0301F080
:100C50003F0158BF4B4201788B4206D00849886952
:100C600008490A4490704B7008BD0748074B9847E5
:100C7000034B9A69034B59780B449A7008BD00BF27
:100C800000080E4068040020600E0800910A080069
:100C900070B50F4E0F4D761BB61018BF002405D04F
:100CA000013455F8043B9847A642F9D10A4E0B4D42
:100CB00000F0E8F8761BB61018BF002406D0013407
:100CC00055F8043B9847A642F9D170BD70BD00BFEE
:100CD000900E0800900E0800980E0800900E080074
:100CE000024B13B1024800F005B870470000000045
:100CF000010D0800002301461A46184600F01EB8F0
:100D000038B50A4C0A4D641BA4100AD004F1804384
:100D1000013B05EB8305013C55F804399847002C4D
:100D2000F9D1BDE8384000F0B7B800BFA80E080000
:100D3000A40E0800704700BF704700BF2DE9F843BC
:100D40002C4D0646286898460F469146FFF7F2FF5D
:100D5000294B1C68D4F84831002B3ED05A681F2A12
:100D60001CDC02F1010E76B1012103EB8204C4F810
:100D70008890D3F8880191400843022EC3F8880177
:100D8000C4F8088123D00232C3F804E0286843F88D
:100D90002270FFF7D1FF0020BDE8F883174B0BB39B
:100DA0004FF4C870AFF300800346D8B10020D4F8E8
:100DB00048114FF0010E586019600246C4F84831DE
:100DC000C3F88801C3F88C01002EDCD0CCE7D3F83F
:100DD0008C010143C3F88C11D5E704F5A673C4F860
:100DE0004831BBE72868FFF7A7FF4FF0FF30BDE8A9
:100DF000F88300BF30040020800E080000000000CF
:100E000043414E30206D6573736167652061727276
:100E10006976656420696E206E6F6E2D75736564EA
:100E2000206D61696C626F780A0D00004E6F646519
:100E300020320A0D0000000073636F72653A2025AE
:100E400064200A0D0000000025640000286E756C07
:100E50006C290000535445502025640D0A00000001
:100E60004552523A205541525420525820627566DC
:100E70006665722069732066756C6C0A0D0000004F
:100E800008000020F8B500BFF8BC08BC9E467047BB
:100E9000E10C080019010800F8B500BFF8BC08BC57
:080EA0009E467047F5000800B2
:100EA80000093D000000000000000000F4020020DE
:100EB8005C030020C40300200000000000000000C4
:100EC800000000000000000000000000000000001A
:100ED800000000000000000000000000000000000A
:100EE80000000000000000000000000000000000FA
:100EF80000000000000000000000000000000000EA
:100F080000000000000000000000000000000000D9
:100F180000000000000000000000000000000000C9
:100F280000000000000000000000000000000000B9
:100F380000000000000000000000000000000000A9
:100F48000000000000000000000000000000000099
:100F580001000000000000000E33CDAB34126DE636
:100F6800ECDE05000B00000000000000000000009F
:100F78000000000000000000000000000000000069
:100F88000000000000000000000000000000000059
:100F98000000000000000000000000000000000049
:100FA8000000000000000000000000000000000039
:0412D800AC04002042
:040000038000000079
:00000001FF
