S00F000054544B343135352E7372656353
S11300000C94B4010C9417030C94D1010C94D903EF
S11300100C94D1010C94D1010C94D1010C94D10114
S11300200C94D1010C94D1010C94D1010C94D10104
S11300300C94D1010C94D1010C94D1010C94D101F4
S11300400C94D1010C94D1010C94D1010C94D101E4
S11300500C94D1010C94D1010C94D1010C94D101D4
S11300600C94D1010C94D1010C94D1010C94D101C4
S1130070000000000000000000065F5F06000000B2
S11300800007070007070000147F7F147F7F140018
S1130090242E6B6B3A120000466630180C66620020
S11300A0307A4F5D377A48000407030000000000EF
S11300B0001C3E63410000000041633E1C00000040
S11300C0082A3E1C1C3E2A0808083E3E0808000078
S11300D000A0E0600000000008080808080800000C
S11300E000006060000000006030180C060301008E
S11300F03E7F594D7F3E000042427F7F40400000DA
S1130100627359496F660000226349497F360000D3
S1130110181C16137F7F1000276745457D390000A2
S11301203C7E4B4979300000036371190F070000CE
S1130130367F49497F360000064F49693F1E00005B
S113014000006C6C0000000000A0EC6C00000000DB
S1130150081C366341000000141414141414000025
S1130160004163361C080000020351590F060000C9
S11301703E7F415D5D1F1E007C7E13137E7C00006C
S1130180417F7F49497F36001C3E63414163220021
S1130190417F7F41637F1C00417F7F495D41630054
S11301A0417F7F491D0103001C3E6341517372006E
S11301B07F7F08087F7F000000417F7F41000000AF
S11301C0307040417F3F0100417F7F081C7763000E
S11301D0417F7F41406070007F7F060C067F7F0077
S11301E07F7F060C187F7F001C3E6341633E1C002A
S11301F0417F7F49090F06001E3F21717F5E000089
S1130200417F7F19396F460026674D597B320000C4
S113021003417F7F410300007F7F40407F7F0000D8
S11302201F3F60603F1F00007F7F3018307F7F00DA
S113023063771C081C776300074F78784F0700002A
S11302406773594D47637100007F7F41410000008F
S11302500103060C183060000041417F7F0000005C
S1130260080C0603060C0800808080808080808053
S11302700000030704000000207454543C7840003C
S1130280413F7F44447C3800387C44446C2800005F
S1130290307848493F7F4000387C54545C18000053
S11302A0487E7F490302000098BCA4A4F87C0400A3
S11302B0417F7F08047C780000447D7D400000007D
S11302C040C484FD7D000000417F7F10386C4400F1
S11302D000417F7F400000007C7C0C180C7C78007F
S11302E07C7C04047C780000387C44447C38000026
S11302F084FCF8A4243C1800183C24A4F8FC8400D2
S1130300447C78441C180000485C54547424000055
S113031000043E7F442400003C7C40403C7C400080
S11303201C3C60603C1C00003C7C6030607C3C00F9
S1130330446C3810386C44009CBCA0A0FC7C0000C9
S11303404C64745C4C64000008083E774141000032
S113035000000077770000004141773E0808000064
S1130360020301030203010011241FBECFEFD4E0F6
S1130370DEBFCDBF12E0A0E0B1E0E2ECF7E102C0E5
S113038005900D92A235B107D9F722E0A2E5B2E0BB
S113039001C01D92A236B207E1F70E9498040C94A2
S11303A0DF0B0C94000081E080BF87BB83B78961B9
S11303B083BF84E081BF08958068E1E0F4E1808335
S11303C081EE94E00197F1F700C000008081811173
S11303D001C081E00895CF93C82F0E94AD038EE041
S11303E00E943F031F928F9386E391E09F938F9324
S11303F00E948D0761E088E20E94510365EB89E267
S11304000E94510363E08AE20E9451038C2F0E94F0
S1130410B50363E08BE20E9451030F900F900F909D
S11304200F90CF910895EF92FF920F931F93CF9364
S1130430DF93CDB7DEB72C970FB6F894DEBF0FBEAF
S1130440CDBFE982FA820B831C832D833E834F83C5
S1130450588769877A878B879C87E980FA800B8124
S11304601C81B8017695679576956795769567951D
S113047081E30E945103602F6295660F607E82E3E0
S11304800E9451036E2D85E30E945103E114F1048F
S113049091F010E0E5E0F0E0EC0FFD1FE10FF11D3D
S11304A0608186E3810F0E9451031F5F812F90E0DA
S11304B08E159F0578F381E80E9465032C960FB68C
S11304C0F894DEBF0FBECDBFDF91CF911F910F9186
S11304D0FF90EF9008951F928F931F926F931F9236
S11304E04F9389E391E09F938F930E948D078DB77B
S11304F09EB708960FB6F8949EBF0FBE8DBF0895A1
S1130500CF92DF92EF92FF921F93CF93DF93CDB7F9
S1130510DEB72C970FB6F894DEBF0FBECDBF0E9496
S1130520850380FF36C081E60E943F03E82E82E601
S11305300E943F03F12CEE0CFF1CEE0CFF1CEE0C92
S1130540FF1C829586958770E82A85E60E943F0302
S1130550C82ED12CC114D104B9F010E086E6810F65
S11305600E943F03682FE5E0F0E0EC0FFD1FE10F70
S1130570F11D8083412F8E2D0E946B021F5F212F5E
S113058030E02C153D0550F340E061E08CE20E9420
S113059093030E94850381FF36C081E70E943F03D5
S11305A0E82E82E70E943F03F12CEE0CFF1CEE0CB8
S11305B0FF1CEE0CFF1C829586958770E82A85E760
S11305C00E943F03C82ED12CC114D104B9F010E00D
S11305D086E7810F0E943F03682FE5E0F0E0EC0F0F
S11305E0FD1FE10FF11D8083412F8E2D0E946B02B0
S11305F01F5F212F30E02C153D0550F340E062E0F1
S11306008CE20E9493038D81883719F481E08093F2
S113061052022C960FB6F894DEBF0FBECDBFDF9109
S1130620CF911F91FF90EF90DF90CF9008951F928C
S11306300F920FB60F9211242F933F934F935F9312
S11306406F937F938F939F93AF93BF93EF93FF9396
S113065089E691E00E94A3070E948002FF91EF9136
S1130660BF91AF919F918F917F916F915F914F91C6
S11306703F912F910F900FBE0F901F901895CF931D
S1130680C82F0E94C50683E00E94D1068C2F0E94C9
S1130690D1060E94D506C82F0E94C7068C2FCF9181
S11306A00895CF93DF93D82FC62F0E94C50682E00A
S11306B00E94D1068D2F0E94D1068C2F0E94D10654
S11306C00E94C706DF91CF910895CF93C82F8FE77B
S11306D08C0F823020F0C43811F0C73841F40E94E6
S11306E0C5068C2F0E94D1060E94C7060CC01F921B
S11306F0CF938CE791E09F938F930E948D070F9087
S11307000F900F900F90CF910895CF930E94C5063C
S113071080EA0E94D1060E94D506C82F0E94C7060F
S11307208C2FCF9108951F93CF93DF93182FD62F3B
S1130730C42F0E94C50685E00E94D106812F0E9425
S1130740D1068D2F0E94D1068C2F0E94D1060E94C3
S1130750C706DF91CF911F9108950E94C50680ECD2
S11307600E94D1060E94C7060895482F60EE8FE0CC
S11307700E9493030895F89485B7826085BF85B776
S11307808C6085BF86B7816086BF8BB7806E8BBF58
S11307907894089580915302882351F083EA91E07C
S11307A09F938F930E948D07109253020F900F9086
S11307B008951F920F920FB60F9211248F9381E028
S11307C0809354028F910F900FBE0F901F90189535
S11307D0C29ABA9A0895CF92DF92EF92FF92CF9382
S11307E0DF9381E00E94DC01D82F80E00E94DC01CD
S11307F0C82F2D2F30E0A4E6B0E00E941107C12CD1
S1130800D12C7601CA94A70196010E94F206D22F38
S11308102C2F30E0A4E6B0E00E941107A701960156
S11308200E94F206922F8D2FDF91CF91FF90EF90CF
S1130830DF90CF9008950F931F93CF93DF93FC0124
S113084091E0B29990E0909355028081811164C047
S1130850EF010E94EB03192F809155028130A1F51D
S113086080915602811158C080910A01882309F4AD
S113087053C080910B011F928F9384E691E09F9364
S11308808F930E948D0780910B010F900F900F9012
S11308900F90823059F0833079F0813091F401E087
S11308A008830E94530600930A010BC082E00E9451
S11308B0530610920A0105C083E00E945306109269
S11308C00A0181E08093560280915502811124C06F
S11308D080910A01882301F1113568F08091560254
S11308E081111AC080910B0181500E943D0681E064
S11308F08093560211C0143168F48091560281111C
S11309000BC080910B018F5F0E943D0681E08093B4
S1130910560202C010925602DF91CF911F910F919F
S1130920089585B7806885BF80B7806280BF0895C9
S1130930CF93DF93CDB7DEB768970FB6F894DEBFD9
S11309400FBECDBF8FE190E00E94E5060E949104A6
S11309500E9461050E94BB030E94D3010E94E80328
S11309600E94C90680E00E94530680E00E94EB01C9
S113097082E090E09C838B8384E090E09A83898377
S11309808EED91E00E94A30781E0082FE82EF12C60
S113099010E021E03A894B895C896D897E898F89D1
S11309A0988D0E9413020F2EFAEE8F2EF1E09F2EE7
S11309B0F02D0E94EB03B82EC92E0E94B906D92E41
S11309C087E592E00E941B040E94CA0380915702AB
S11309D0882379F340915502E980FA800B811C81C8
S11309E02B2D3C2D5D2D69857A858B859C850E94F8
S11309F0130281E00E94DC011F928F939F928F92D9
S1130A000E948D070F900F900F900F9080915202CB
S1130A10882379F243E068E080EF91E00E940C06BD
S1130A20C8CF806BE0910801F0910901808308959B
S1130A30982F9F70E0910801F091090190838295AD
S1130A408F70805FE0910801F0910901808308951F
S1130A50CF93C62F0E9411058C2F0E941805CF91A9
S1130A600895CF93C82F60E00E94280580E890E0A5
S1130A702FEFE0910601F091070120830197C9F758
S1130A808C2F0E941105CF910895CF9360E080E0F0
S1130A900E942805C0E060E08C2F0E94280580E0B9
S1130AA0E0910601F091070110828F5F8038C1F751
S1130AB0CF5FC83081F760E080E00E942805CF91C5
S1130AC00895E0910801F09109018EEA8083E09194
S1130AD00801F091090181EA8083E0910801F09115
S1130AE009018AED8083E0910801F091090182E116
S1130AF08083E0910801F091090188EC8083E09102
S1130B000801F091090188EA8083E0910801F091DD
S1130B1009018FE38083E0910801F091090185EDDB
S1130B208083E0910801F091090180E88083E091DD
S1130B300801F091090181E88083E0910801F091B6
S1130B40090180E58083E0910801F091090189EDB4
S1130B508083E0910801F091090181E28083E091B2
S1130B600801F091090180E28083E0910801F0918D
S1130B70090182E08083E0910801F09109018BED85
S1130B808083E0910801F091090180E38083E09182
S1130B900801F09109018DEA8083E0910801F09148
S1130BA009011082E0910801F091090184EA80832F
S1130BB0E0910801F091090186EA8083E09108013F
S1130BC0F09109018FEA80830E9445050895CF932F
S1130BD0C82F862F642F0E9428052C2F30E0F9019E
S1130BE0EE0FFF1FEE0FFF1FEE0FFF1FE059F04047
S1130BF0220F331F220F331F220F331F2858304078
S1130C008491A0910601B09107018C933196E2176B
S1130C10F307B1F7CF910895EF92FF920F931F93CB
S1130C20CF93DF93D42F262F30E0213131051CF4EC
S1130C30611107C01BC040E06D2F8EE70E94E705DD
S1130C4015C08C016150E62EF12C2FEFE21AF20A46
S1130C50E80EF91EC0E04C2F6D2FF80181918F0131
S1130C600E94E705C85F0E151F05A9F7DF91CF9114
S1130C701F910F91FF90EF900895CF939FEF980FDE
S1130C80963078F4C82F60910B0148E780E20E9407
S1130C90E705C0930B0160910B0148E78CE30E94C8
S1130CA0E705CF9108950F931F93CF93C82F0E9408
S1130CB04505C13001F130F0C23061F1C33009F4AF
S1130CC03FC053C080E00E9431050AE211E0C0E059
S1130CD0CF5F4C2FF8016281808191810E940C06C4
S1130CE00D5F1F4FC430A1F787E00E94310581E0FA
S1130CF00E943D063AC080E00E943105E4E2F1E042
S1130D0041E06281808191810E940C0687E00E940B
S1130D1031052BC080E00E94310508E111E0C0E0FC
S1130D20CF5F4C2FF8016281808191810E940C0673
S1130D300D5F1F4FC430A1F787E00E94310515C035
S1130D4080E00E9431050CE011E0C0E0CF5F4C2F41
S1130D50F8016281808191810E940C060D5F1F4F12
S1130D60C430A1F787E00E943105CF911F910F9104
S1130D700895CF9383E00E94DC01C82F82E00E9493
S1130D80DC01982F8C2FCF910895C4980895C49AAC
S1130D90089580EB87BBBE9881E58DB90E94C70694
S1130DA008958FB9779BFECF08951FB8779BFECF28
S1130DB08FB108955D9BFECF8CB980E090E00895DB
S1130DC05F9BFECF8CB190E0089590BD89B988E116
S1130DD08AB986E880BD60EE76E08AED96E00E94EE
S1130DE042070895052E97FB1EF400940E940907FC
S1130DF057FD07D00E94200707FC03D04EF40C9443
S1130E00090750954095309521953F4F4F4F5F4FBF
S1130E10089590958095709561957F4F8F4F9F4F62
S1130E200895A29FB001B39FC001A39F700D811DBF
S1130E301124911DB29F700D811D1124911D0895DF
S1130E40A1E21A2EAA1BBB1BFD010DC0AA1FBB1FCA
S1130E50EE1FFF1FA217B307E407F50720F0A21B3C
S1130E60B30BE40BF50B661F771F881F991F1A94A9
S1130E7069F760957095809590959B01AC01BD01D3
S1130E80CF0108950F931F93CF93DF93009731F40D
S1130E906115710519F480E090E03AC08B01EC0112
S1130EA06EE070E081E090E00E94B409FC01892BBF
S1130EB091F380E883830115110571F0138702878C
S1130EC081E883838091580290915902892B21F4FF
S1130ED0F0935902E09358022097C9F0D187C08754
S1130EE083818260838380915A0290915B02892B73
S1130EF071F4F0935B02E0935A0280915C0290914A
S1130F005D02892B21F4F0935D02E0935C02CF0132
S1130F10DF91CF911F910F910895A0E0B0E0E3E934
S1130F20F7E00C94B80BAE014B5F5F4FFA0161918F
S1130F307191AF0180915A0290915B020E94D30794
S1130F40E2E00C94D40B0F931F93CF93DF93E091C3
S1130F505A02F0915B02238121FF1BC08C01D0E077
S1130F60C0E0F80181918F0160915A0270915B0297
S1130F70DB011896ED91FC911997882331F00995BE
S1130F80892B79F3DFEFCFEFECCF8AE00995892B3A
S1130F9019F08FEF9FEF02C08D2F9C2FDF91CF911F
S1130FA01F910F910895ABE0B0E0E9EDF7E00C94E8
S1130FB0A80B6C017B018A01FC01178216828381D4
S1130FC081FFCCC1CE0101963C01F6019381F7016A
S1130FD093FD859193FF81917F01882309F4BAC120
S1130FE0853239F493FD859193FF81917F01853298
S1130FF029F4B60190E00E940E0BE7CF912C212C2E
S1131000312CFFE1F315D8F08B3279F038F48032CB
S113101079F08332A1F4232D20611DC08D3261F05B
S1131020803369F4232D216016C0832D8260382E0D
S1131030E32DE4603E2E2AC0F32DF8601DC037FC7A
S11310402DC020ED280F2A3040F08E32B9F436FC42
S113105081C1232D2064322E19C036FE06C08AE0D9
S1131060989E200D1124922E11C0EAE02E9E200D90
S11310701124222EF32DF0623F2E08C08C3621F469
S1131080832D8068382E02C0883641F4F70193FD21
S1131090859193FF81917F018111B3CF982F9F7D1B
S11310A09554933028F40C5F1F4F9FE399830DC030
S11310B0833631F0833771F0833509F059C021C08C
S11310C0F801808189830E5F1F4F88248394912CBB
S11310D0530113C02801F2E04F0E511CF801A08007
S11310E0B18036FE03C0692D70E002C06FEF7FEF60
S11310F0C5010E94030B4C018201F32DFF773F2EA3
S113110016C0280122E0420E511CF801A080B180D3
S113111036FE03C0692D70E002C06FEF7FEFC5019A
S11311200E94F10A4C01F32DF0683F2E820133FC3A
S11311301BC0822D90E088169906B0F4B60180E2B7
S113114090E00E940E0B2A94F4CFF50137FC8591B0
S113115037FE81915F01B60190E00E940E0B2110D1
S11311602A9421E0821A91088114910471F7E8C04D
S1131170843611F0893641F5F80137FE07C06081E5
S11311807181828193810C5F1F4F08C060817181DE
S1131190072E000C880B990B0E5F1F4FF32DFF7663
S11311A03F2E97FF09C090958095709561957F4F6C
S11311B08F4F9F4FF0683F2E2AE030E0A3010E943A
S11311C04A0B882E861845C0853731F4232D2F7E8F
S11311D0B22E2AE030E025C0932D997FB92E8F36A8
S11311E0C1F018F4883579F0B5C0803719F0883724
S11311F021F0B0C0E92FE061BE2EB4FE0DC0FB2D7E
S1131200F460BF2E09C034FE0AC0292F2660B22E16
S113121006C028E030E005C020E130E002C020E153
S113122032E0F801B7FE07C0608171818281938149
S11312300C5F1F4F06C06081718180E090E00E5FFB
S11312401F4FA3010E944A0B882E8618FB2DFF779F
S11312503F2E36FE0DC0232D2E7FA22E891458F466
S113126034FE0BC032FC09C0832D8E7EA82E05C02F
S1131270B82CA32C03C0B82C01C0B92CA4FE0FC0F9
S1131280FE01E80DF11D8081803321F49A2D997EB1
S1131290A92E09C0A2FE06C0B394B39404C08A2D3B
S11312A0867809F0B394A3FC11C0A0FE06C0B21462
S11312B088F4280C922C9B180EC0B21460F4B6016A
S11312C080E290E00E940E0BB394F7CFB21418F4AE
S11312D02B1802C0982C212CA4FE10C0B60180E368
S11312E090E00E940E0BA2FE17C0A1FC03C088E789
S11312F090E002C088E590E0B6010CC08A2D8678A3
S113130059F0A1FE02C08BE201C080E2A7FC8DE28D
S1131310B60190E00E940E0B891438F4B60180E304
S113132090E00E940E0B9A94F7CF8A94F301E80D93
S1131330F11D8081B60190E00E940E0B8110F5CF63
S1131340222009F442CEB60180E290E00E940E0B06
S11313502A94F6CFF6018681978102C08FEF9FEF22
S11313602B96E2E10C94C40B0F931F93CF93DF935E
S1131370869F8001879F100D969F100D1124C80130
S11313800E94D009EC01009729F0A80160E070E008
S11313900E94FC0ACE01DF91CF911F910F91089515
S11313A00F931F93CF93DF938230910510F482E063
S11313B090E0E0916002F091610220E030E0A0E072
S11313C0B0E0309719F140815181028113814817AF
S11313D05907C8F08417950769F4109731F01296ED
S11313E00C93129713961C9327C0009360021093DA
S11313F0610222C02115310519F04217530718F470
S11314009A01BD01EF01DF01F801DBCF21153105A0
S1131410F9F0281B390B2430310580F48A819B8133
S11314206115710521F0FB019383828304C09093BD
S1131430610280936002FE01329644C0FE01E20F15
S1131440F31F8193919322503109398328833AC041
S113145020915E0230915F02232B41F4209102011E
S11314603091030130935F0220935E0220910001CA
S1131470309101012115310541F42DB73EB740915A
S1131480040150910501241B350BE0915E02F0919B
S11314905F02E217F307A0F42E1B3F0B281739074E
S11314A078F0AC014E5F5F4F2417350748F04E0FBC
S11314B05F1F50935F0240935E028193919302C039
S11314C0E0E0F0E0CF01DF91CF911F910F910895FB
S11314D0CF93DF93009709F481C0FC013297138204
S11314E01282A0916002B0916102109781F4208170
S11314F03181820F931F20915E0230915F02281781
S1131500390751F5F0935F02E0935E0267C0ED0185
S113151020E030E0CE17DF0740F44A815B819E0172
S113152041155105F1F0EA01F5CFD383C28340811F
S11315305181840F951FC817D90759F4888199815F
S1131540840F951F0296918380838A819B81938364
S113155082832115310529F4F0936102E09360023E
S11315603DC0E901FB83EA8349915991C40FD51F1A
S1131570EC17FD0761F480819181840F951F029619
S1131580E90199838883828193819B838A83E0E044
S1131590F0E012968D919C911397009719F0FD013C
S11315A0DC01F7CF8D919C9111979D012E5F3F4FE8
S11315B0820F931F20915E0230915F022817390732
S11315C069F4309729F4109261021092600202C00B
S11315D013821282B0935F02A0935E02DF91CF91D7
S11315E00895FC010590615070400110D8F7809572
S11315F090958E0F9F1F0895DC0101C06D9341509B
S11316005040E0F70895FC016150704001900110D2
S1131610D8F7809590958E0F9F1F08950F931F9371
S1131620CF93DF93FB01238121FD03C08FEF9FEF55
S11316302CC022FF16C04681578124813581421770
S1131640530744F4A081B1819D012F5F3F4F318343
S113165020838C93268137812F5F3F4F37832683E6
S113166014C08B01EC01FB010084F185E02D099588
S1131670892BE1F6D80116968D919C9117970196C6
S113168017969C938E931697CE01DF91CF911F915D
S11316900F910895FA01AA27283051F1203181F1E0
S11316A0E8946F936E7F6E5F7F4F8F4F9F4FAF4F66
S11316B0B1E03ED0B4E03CD0670F781F891F9A1F79
S11316C0A11D680F791F8A1F911DA11D6A0F711D2D
S11316D0811D911DA11D20D009F468943F912AE039
S11316E0269F11243019305D3193DEF6CF01089521
S11316F0462F4770405D4193B3E00FD0C9F7F6CF52
S1131700462F4F70405D4A3318F0495D31FD405219
S1131710419302D0A9F7EACFB4E0A69597958795AF
S113172077956795BA95C9F700976105710508958E
S11317309B01AC010A2E069457954795379527953A
S1131740BA95C9F7620F731F841F951FA01D0895D2
S11317502F923F924F925F926F927F928F929F92BD
S1131760AF92BF92CF92DF92EF92FF920F931F93AB
S1131770CF93DF93CDB7DEB7CA1BDB0B0FB6F8945C
S1131780DEBF0FBECDBF09942A88398848885F849C
S11317906E847D848C849B84AA84B984C884DF800D
S11317A0EE80FD800C811B81AA81B981CE0FD11DF1
S11317B00FB6F894DEBF0FBECDBFED010895F894C7
S10517C0FFCF55
S11317C2000062022000001200100101F901070169
S11317D202080A02040F0204140204190208220273
S11317E2082B02043002073802063F0204440207AF
S11317F24C0205000000257800494E434F4D494EE6
S113180247204441544120425954453A200D0A206C
S1131812646174615B25645D3A202563200D0A20AE
S113182269643A2025640D0A006D65737361676506
S1131832207265636569766564200D0025642069FC
S113184273206E6F742061204275666665722E2065
S11318525254532066756E6374696F6E206572729A
S11318626F72004C45465420420A0D00783A2025F6
S1131872642000793A2025640A0D0049444C45202D
S1131882004C4546542000524947485420004944DC
S11318924C450D00444F574E0D0055500D0049273D
S11318A26D204E4F444520310D002564200D0A0061
S11318B2596F75206C6F73650054544B3431353550
S11318C20047726F75702033390032303231003282
S11318D23032320048616E73004C656F6E6172641F
S11318E26F00507261676161736800546F626900CE
S11318F2506C6179696E670052657475726E00503E
S11319026C617900437265646974730041626F7536
S105191274005B
S9030000FC
