:100000000C94B4010C948F050C9424040C941504E6
:100010000C94D1010C94D1010C94D1010C94D10118
:100020000C94D1010C94D1010C94D1010C94D10108
:100030000C94D1010C94D1010C94D1010C94D101F8
:100040000C94D1010C94D1010C94D1010C94D101E8
:100050000C94D1010C94D1010C94D1010C94D101D8
:100060000C94D1010C94D1010C94D1010C94D101C8
:10007000000000000000000000065F5F06000000B6
:100080000007070007070000147F7F147F7F14001C
:10009000242E6B6B3A120000466630180C66620024
:1000A000307A4F5D377A48000407030000000000F3
:1000B000001C3E63410000000041633E1C00000044
:1000C000082A3E1C1C3E2A0808083E3E080800007C
:1000D00000A0E06000000000080808080808000010
:1000E00000006060000000006030180C0603010092
:1000F0003E7F594D7F3E000042427F7F40400000DE
:10010000627359496F660000226349497F360000D7
:10011000181C16137F7F1000276745457D390000A6
:100120003C7E4B4979300000036371190F070000D2
:10013000367F49497F360000064F49693F1E00005F
:1001400000006C6C0000000000A0EC6C00000000DF
:10015000081C366341000000141414141414000029
:10016000004163361C080000020351590F060000CD
:100170003E7F415D5D1F1E007C7E13137E7C000070
:10018000417F7F49497F36001C3E63414163220025
:10019000417F7F41637F1C00417F7F495D41630058
:1001A000417F7F491D0103001C3E63415173720072
:1001B0007F7F08087F7F000000417F7F41000000B3
:1001C000307040417F3F0100417F7F081C77630012
:1001D000417F7F41406070007F7F060C067F7F007B
:1001E0007F7F060C187F7F001C3E6341633E1C002E
:1001F000417F7F49090F06001E3F21717F5E00008D
:10020000417F7F19396F460026674D597B320000C8
:1002100003417F7F410300007F7F40407F7F0000DC
:100220001F3F60603F1F00007F7F3018307F7F00DE
:1002300063771C081C776300074F78784F0700002E
:100240006773594D47637100007F7F414100000093
:100250000103060C183060000041417F7F00000060
:10026000080C0603060C0800808080808080808057
:100270000000030704000000207454543C78400040
:10028000413F7F44447C3800387C44446C28000063
:10029000307848493F7F4000387C54545C18000057
:1002A000487E7F490302000098BCA4A4F87C0400A7
:1002B000417F7F08047C780000447D7D4000000081
:1002C00040C484FD7D000000417F7F10386C4400F5
:1002D00000417F7F400000007C7C0C180C7C780083
:1002E0007C7C04047C780000387C44447C3800002A
:1002F00084FCF8A4243C1800183C24A4F8FC8400D6
:10030000447C78441C180000485C54547424000059
:1003100000043E7F442400003C7C40403C7C400084
:100320001C3C60603C1C00003C7C6030607C3C00FD
:10033000446C3810386C44009CBCA0A0FC7C0000CD
:100340004C64745C4C64000008083E774141000036
:1003500000000077770000004141773E0808000068
:10036000020301030203010011241FBECFEFD4E0FA
:10037000DEBFCDBF12E0A0E0B1E0EEECF5E102C0DF
:1003800005900D92AC3FB107D9F723E0ACEFB2E096
:1003900001C01D92AA30B207E1F70E94B7050C9484
:1003A000E50A0C9400005D9BFECF8CB980E090E0E4
:1003B00008955F9BFECF8CB190E0089590BD89B900
:1003C00088E18AB986E880BD69ED71E083ED91E04E
:1003D0000E944806089585B7806885BF80B780620F
:1003E00080BF089581E080BF87BB83B7896183BFE9
:1003F00084E081BF08958068E1E0F4E1808383EFC9
:1004000091E00197F1F700C0000080810895806BB2
:10041000E0911501F091160180830895982F9F7047
:10042000E0911501F0911601908382958F70805FA5
:10043000E0911501F091160180830895CF93C62FA6
:100440000E9407028C2F0E940E02CF910895CF9335
:10045000C82F60E00E941E0280E890E02FEFE0913C
:100460001301F091140120830197C9F78C2F0E948A
:100470000702CF910895CF9360E080E00E941E02B2
:10048000C0E060E08C2F0E941E0280E0E09113012A
:10049000F091140110828F5F8038C1F7CF5FC830B0
:1004A00081F760E080E00E941E02CF910895E09104
:1004B0001501F09116018EEA8083E0911501F0910B
:1004C000160181EA8083E0911501F09116018AED11
:1004D0008083E0911501F091160182E18083E09123
:1004E0001501F091160188EC8083E0911501F091DF
:1004F000160188EA8083E0911501F09116018FE3DF
:100500008083E0911501F091160185ED8083E091E3
:100510001501F091160180E88083E0911501F091BA
:10052000160181E88083E0911501F091160180E5C4
:100530008083E0911501F091160189ED8083E091AF
:100540001501F091160181E28083E0911501F0918F
:10055000160180E28083E0911501F091160182E09E
:100560008083E0911501F09116018BED8083E0917D
:100570001501F091160180E38083E0911501F0915F
:1005800016018DEA8083E0911501F0911601108229
:10059000E0911501F091160184EA8083E091150144
:1005A000F091160186EA8083E0911501F091160121
:1005B0008FEA80830E943B020895CF93C82F862F35
:1005C000642F0E941E022C2F30E0F901EE0FFF1F56
:1005D000EE0FFF1FEE0FFF1FE059F040220F331FF9
:1005E000220F331F220F331F285830408491A091CF
:1005F0001301B09114018C933196E217F307B1F710
:10060000CF910895EF92FF920F931F93CF93DF93B3
:10061000D42F262F30E0213131051CF4611107C0A1
:100620001BC040E06D2F8EE70E94DD0215C08C01DB
:100630006150E62EF12C2FEFE21AF20AE80EF91EB5
:10064000C0E04C2F6D2FF80181918F010E94DD02D7
:10065000C85F0E151F05A9F7DF91CF911F910F916C
:10066000FF90EF900895CF939FEF980F963078F416
:10067000C82F6091060148E780E20E94DD02C09326
:1006800006016091060148E78CE30E94DD02CF91EC
:1006900008950F931F93CF93811117C00E942702D3
:1006A00007E011E0C0E0CF5F4C2FF801628180814C
:1006B00091810E9402030D5F1F4FC430A1F787E0B4
:1006C0000E94270281E00E943303CF911F910F9176
:1006D0000895C29ABA9A0895CF92DF92EF92FF924C
:1006E000CF93DF9381E00E94FB01D82F80E00E942E
:1006F000FB01C82F2D2F30E0A4E6B0E00E941706C2
:10070000C12CD12C7601CA94A70196010E94F8054C
:10071000D22F2C2F30E0A4E6B0E00E941706A701EC
:1007200096010E94F805922F8D2FDF91CF91FF90B7
:10073000EF90DF90CF900895CF9386B3847090E0D0
:10074000039621E0079708F020E02093FE020E9424
:100750006C03C92F8091FE028130A9F48091FF02C1
:10076000811135C0809106011F928F938FEC92E02A
:100770009F938F930E94930681E08093FF020F90D6
:100780000F900F900F908091FE02811120C0C13513
:1007900068F08091FF0281111AC08091060181509A
:1007A0000E94330381E08093FF0211C0C43168F4DA
:1007B0008091FF0281110BC0809106018F5F0E9422
:1007C000330381E08093FF0202C01092FF02CF91B9
:1007D0000895F89485B7826085BF85B78C6085BF22
:1007E00086B7816086BF8BB7806E8BBF7894089583
:1007F0008091FD02882351F085E492E09F938F93CE
:100800000E9493061092FD020F900F908091FC02BF
:10081000882351F08FE492E09F938F930E94930678
:100820001092FC020F900F9008951F920F920FB636
:100830000F9211248F9381E08093FD028F910F908E
:100840000FBE0F901F9018951F920F920FB60F9228
:1008500011248F9381E08093FC028F910F900FBE43
:100860000F901F901895C4980895C49A089580EB2E
:1008700087BBBE9881E58DB90E94350408958FB974
:10088000779BFECF08951FB8779BFECF8FB1089559
:10089000CF93C82F0E94330483E00E943F048C2F23
:1008A0000E943F040E944304C82F0E9435048C2FED
:1008B000CF910895CF93DF93D82FC62F0E94330492
:1008C00082E00E943F048D2F0E943F048C2F0E94E3
:1008D0003F040E943504DF91CF910895CF93C82F34
:1008E0008FE78C0F823020F0C43811F0C73841F404
:1008F0000E9433048C2F0E943F040E9435040CC0D8
:100900001F92CF9387E692E09F938F930E94930666
:100910000F900F900F900F90CF910895CF930E945A
:10092000330480EA0E943F040E944304C82F0E94BF
:1009300035048C2FCF9108951F93CF93DF93182FF9
:10094000D62FC42F0E94330485E00E943F04812FDC
:100950000E943F048D2F0E943F048C2F0E943F0471
:100960000E943504DF91CF911F9108950E943304B6
:1009700080EC0E943F040E9435040895482F60EEE9
:100980008FE00E949C040895CF93C82F0E94B60464
:100990008EE00E9448041F928F938EE892E09F930E
:1009A0008F930E94930661E088E20E945A0465EBEF
:1009B00089E20E945A0463E08AE20E945A048C2F62
:1009C0000E94BE0463E08BE20E945A040F900F90D5
:1009D0000F900F90CF910895EF92FF920F931F9376
:1009E000CF93DF93CDB7DEB72C970FB6F894DEBF69
:1009F0000FBECDBFE982FA820B831C832D833E8319
:100A00004F83588769877A878B879C87E980FA802C
:100A10000B811C81B80176956795769567957695DB
:100A2000679581E30E945A04602F6295660F607E8D
:100A300082E30E945A046E2D85E30E945A04E11459
:100A4000F10491F010E0E5E0F0E0EC0FFD1FE10FA4
:100A5000F11D608186E3810F0E945A041F5F812F80
:100A600090E08E159F0578F381E80E946E042C9625
:100A70000FB6F894DEBF0FBECDBFDF91CF911F91AF
:100A80000F91FF90EF9008950F931F93CF930E94C3
:100A90008E0480FF1EC081E60E94480482E60E9408
:100AA000480485E60E944804082F10E0011511054E
:100AB00059F0C0E086E68C0F0E944804CF5F2C2FCF
:100AC00030E020173107B0F340E061E08CE20E9493
:100AD0009C040E948E0481FF1EC081E70E9448048E
:100AE00082E70E94480485E70E944804082F10E02E
:100AF0000115110559F0C0E086E78C0F0E944804EB
:100B0000CF5F2C2F30E020173107B0F340E062E0D8
:100B10008CE20E949C04CF911F910F9108951F9227
:100B20000F920FB60F9211242F933F934F935F9321
:100B30006F937F938F939F93AF93BF93EF93FF93A5
:100B400081E992E00E94A9060E944405FF91EF917D
:100B5000BF91AF919F918F917F916F915F914F91D5
:100B60003F912F910F900FBE0F901F901895CF932C
:100B7000DF93CDB7DEB72C970FB6F894DEBF0FBE6C
:100B8000CDBF8FE190E00E94DE010E94EB010E9448
:100B900057020E94E9030E94F2010E9469030E9429
:100BA000370480E00E94490380E00E94C40482E090
:100BB00090E09C838B839A83898384ED92E00E94EA
:100BC000A9060E946C03C82ED92E0E949C030E9485
:100BD000F803E980FA800B811C812C2D3D2D4F817B
:100BE000588569857A858B859C850E94EC04E9CFC0
:100BF000052E97FB1EF400940E940F0657FD07D0A8
:100C00000E94260607FC03D04EF40C940F06509564
:100C10004095309521953F4F4F4F5F4F08959095E8
:100C20008095709561957F4F8F4F9F4F0895A29F3C
:100C3000B001B39FC001A39F700D811D1124911DB0
:100C4000B29F700D811D1124911D0895A1E21A2EED
:100C5000AA1BBB1BFD010DC0AA1FBB1FEE1FFF1F60
:100C6000A217B307E407F50720F0A21BB30BE40BB0
:100C7000F50B661F771F881F991F1A9469F76095F7
:100C80007095809590959B01AC01BD01CF010895B1
:100C90000F931F93CF93DF93009731F46115710584
:100CA00019F480E090E03AC08B01EC016EE070E056
:100CB00081E090E00E94BA08FC01892B91F380E862
:100CC00083830115110571F01387028781E88383FF
:100CD0008091000390910103892B21F4F09301038B
:100CE000E09300032097C9F0D187C0878381826099
:100CF00083838091020390910303892B71F4F09315
:100D00000303E09302038091040390910503892B70
:100D100021F4F0930503E0930403CF01DF91CF9119
:100D20001F910F910895A0E0B0E0E9E9F6E00C947E
:100D3000BE0AAE014B5F5F4FFA0161917191AF0145
:100D400080910203909103030E94D906E2E00C9483
:100D5000DA0A0F931F93CF93DF93E0910203F09190
:100D60000303238121FF1BC08C01D0E0C0E0F80108
:100D700081918F016091020370910303DB0118964A
:100D8000ED91FC911997882331F00995892B79F31E
:100D9000DFEFCFEFECCF8AE00995892B19F08FEFC9
:100DA0009FEF02C08D2F9C2FDF91CF911F910F914C
:100DB0000895ABE0B0E0EFEDF6E00C94AE0A6C0104
:100DC0007B018A01FC0117821682838181FFCCC1DD
:100DD000CE0101963C01F6019381F70193FD8591C7
:100DE00093FF81917F01882309F4BAC1853239F4D8
:100DF00093FD859193FF81917F01853229F4B6019E
:100E000090E00E94140AE7CF912C212C312CFFE1B5
:100E1000F315D8F08B3279F038F4803279F08332E0
:100E2000A1F4232D20611DC08D3261F0803369F45F
:100E3000232D216016C0832D8260382EE32DE460BF
:100E40003E2E2AC0F32DF8601DC037FC2DC020EDCA
:100E5000280F2A3040F08E32B9F436FC81C1232DA0
:100E60002064322E19C036FE06C08AE0989E200DFE
:100E70001124922E11C0EAE02E9E200D1124222E64
:100E8000F32DF0623F2E08C08C3621F4832D80684C
:100E9000382E02C0883641F4F70193FD859193FF07
:100EA00081917F018111B3CF982F9F7D955493300D
:100EB00028F40C5F1F4F9FE399830DC0833631F0F8
:100EC000833771F0833509F059C021C0F801808162
:100ED00089830E5F1F4F88248394912C530113C084
:100EE0002801F2E04F0E511CF801A080B18036FEBF
:100EF00003C0692D70E002C06FEF7FEFC5010E9453
:100F0000090A4C018201F32DFF773F2E16C02801FC
:100F100022E0420E511CF801A080B18036FE03C0D1
:100F2000692D70E002C06FEF7FEFC5010E94F709E5
:100F30004C01F32DF0683F2E820133FC1BC0822D43
:100F400090E088169906B0F4B60180E290E00E9425
:100F5000140A2A94F4CFF50137FC859137FE81916C
:100F60005F01B60190E00E94140A21102A9421E04A
:100F7000821A91088114910471F7E8C0843611F047
:100F8000893641F5F80137FE07C0608171818281A1
:100F900093810C5F1F4F08C060817181072E000C88
:100FA000880B990B0E5F1F4FF32DFF763F2E97FF97
:100FB00009C090958095709561957F4F8F4F9F4F99
:100FC000F0683F2E2AE030E0A3010E94500A882EEC
:100FD000861845C0853731F4232D2F7EB22E2AE0A6
:100FE00030E025C0932D997FB92E8F36C1F018F4CB
:100FF000883579F0B5C0803719F0883721F0B0C056
:10100000E92FE061BE2EB4FE0DC0FB2DF460BF2EB3
:1010100009C034FE0AC0292F2660B22E06C028E07F
:1010200030E005C020E130E002C020E132E0F8010C
:10103000B7FE07C060817181828193810C5F1F4F71
:1010400006C06081718180E090E00E5F1F4FA301B8
:101050000E94500A882E8618FB2DFF773F2E36FE01
:101060000DC0232D2E7FA22E891458F434FE0BC000
:1010700032FC09C0832D8E7EA82E05C0B82CA32C6F
:1010800003C0B82C01C0B92CA4FE0FC0FE01E80DAE
:10109000F11D8081803321F49A2D997EA92E09C0FB
:1010A000A2FE06C0B394B39404C08A2D867809F0DA
:1010B000B394A3FC11C0A0FE06C0B21488F4280C9F
:1010C000922C9B180EC0B21460F4B60180E290E03E
:1010D0000E94140AB394F7CFB21418F42B1802C06C
:1010E000982C212CA4FE10C0B60180E390E00E9451
:1010F000140AA2FE17C0A1FC03C088E790E002C05A
:1011000088E590E0B6010CC08A2D867859F0A1FEE2
:1011100002C08BE201C080E2A7FC8DE2B60190E044
:101120000E94140A891438F4B60180E390E00E940A
:10113000140A9A94F7CF8A94F301E80DF11D808187
:10114000B60190E00E94140A8110F5CF222009F424
:1011500042CEB60180E290E00E94140A2A94F6CFB3
:10116000F6018681978102C08FEF9FEF2B96E2E117
:101170000C94CA0A0F931F93CF93DF93869F80012D
:10118000879F100D969F100D1124C8010E94D6084C
:10119000EC01009729F0A80160E070E00E94020ACB
:1011A000CE01DF91CF911F910F9108950F931F935F
:1011B000CF93DF938230910510F482E090E0E091CC
:1011C0000803F091090320E030E0A0E0B0E03097A0
:1011D00019F1408151810281138148175907C8F0E4
:1011E0008417950769F4109731F012960C931297B3
:1011F00013961C9327C0009308031093090322C081
:101200002115310519F04217530718F49A01BD0151
:10121000EF01DF01F801DBCF21153105F9F0281BC3
:10122000390B2430310580F48A819B816115710569
:1012300021F0FB019383828304C090930903809380
:101240000803FE01329644C0FE01E20FF31F8193B2
:10125000919322503109398328833AC020910603A3
:1012600030910703232B41F42091020130910301B7
:101270003093070320930603209100013091010170
:101280002115310541F42DB73EB74091040150912D
:101290000501241B350BE0910603F0910703E217CB
:1012A000F307A0F42E1B3F0B2817390778F0AC0189
:1012B0004E5F5F4F2417350748F04E0F5F1F509366
:1012C0000703409306038193919302C0E0E0F0E0AE
:1012D000CF01DF91CF911F910F910895CF93DF93AD
:1012E000009709F481C0FC01329713821282A09109
:1012F0000803B0910903109781F420813181820F96
:10130000931F20910603309107032817390751F5E1
:10131000F0930703E093060367C0ED0120E030E09F
:10132000CE17DF0740F44A815B819E0141155105CC
:10133000F1F0EA01F5CFD383C28340815181840F5C
:10134000951FC817D90759F488819981840F951F73
:101350000296918380838A819B8193838283211566
:10136000310529F4F0930903E09308033DC0E90136
:10137000FB83EA8349915991C40FD51FEC17FD07F0
:1013800061F480819181840F951F0296E901998310
:101390008883828193819B838A83E0E0F0E01296C8
:1013A0008D919C911397009719F0FD01DC01F7CF07
:1013B0008D919C9111979D012E5F3F4F820F931F3E
:1013C00020910603309107032817390769F43097F5
:1013D00029F4109209031092080302C013821282AA
:1013E000B0930703A0930603DF91CF910895FC010A
:1013F0000590615070400110D8F7809590958E0F40
:101400009F1F0895DC0101C06D9341505040E0F7EB
:101410000895FC016150704001900110D8F780954B
:1014200090958E0F9F1F08950F931F93CF93DF9377
:10143000FB01238121FD03C08FEF9FEF2CC022FF12
:1014400016C046815781248135814217530744F4E1
:10145000A081B1819D012F5F3F4F318320838C9309
:10146000268137812F5F3F4F3783268314C08B013E
:10147000EC01FB010084F185E02D0995892BE1F653
:10148000D80116968D919C911797019617969C936B
:101490008E931697CE01DF91CF911F910F910895F2
:1014A000FA01AA27283051F1203181F1E8946F9395
:1014B0006E7F6E5F7F4F8F4F9F4FAF4FB1E03ED03B
:1014C000B4E03CD0670F781F891F9A1FA11D680FD9
:1014D000791F8A1F911DA11D6A0F711D811D911D0C
:1014E000A11D20D009F468943F912AE0269F112481
:1014F0003019305D3193DEF6CF010895462F4770E5
:10150000405D4193B3E00FD0C9F7F6CF462F4F703F
:10151000405D4A3318F0495D31FD4052419302D09D
:10152000A9F7EACFB4E0A695979587957795679543
:10153000BA95C9F700976105710508959B01AC0143
:101540000A2E06945795479537952795BA95C9F76A
:10155000620F731F841F951FA01D08952F923F9245
:101560004F925F926F927F928F929F92AF92BF92B3
:10157000CF92DF92EF92FF920F931F93CF93DF935F
:10158000CDB7DEB7CA1BDB0B0FB6F894DEBF0FBEBC
:10159000CDBF09942A88398848885F846E847D8409
:1015A0008C849B84AA84B984C884DF80EE80FD800B
:1015B0000C811B81AA81B981CE0FD11D0FB6F89481
:0E15C000DEBF0FBECDBFED010895F894FFCF42
:1015CE0000000A03200001E00204E50208EE020713
:1015DE00F60205001200105374617274696E672072
:1015EE005352414D20746573742E2E2E0D0057727A
:1015FE00697465207068617365206572726F723AE6
:10160E00206578745F72616D5B2534645D203D20CA
:10161E0025303258202873686F756C6420626520FF
:10162E0025303258290D0A0052657472696576614B
:10163E006C207068617365206572726F723A2065F6
:10164E0078745F72616D5B2534645D203D202530BA
:10165E003258202873686F756C64206265202530BF
:10166E003258290D0A005352414D2074657374206F
:10167E00636F6D706C657465642077697468200D96
:10168E000A253464206572726F727320696E20773A
:10169E007269746520706861736520616E64200DD7
:1016AE000A253464206572726F727320696E20721F
:1016BE00657472696576616C2070686173650D0A78
:1016CE00004368616E6E656C2025643A20256420A7
:1016DE000A0D00783A2025642000793A2025640A04
:1016EE000D0049444C4520004C45465420005249BB
:1016FE00474854200049444C450D00444F574E0D69
:10170E000055500D00524947485420420A0D004CD6
:10171E0045465420420A0D004C3A202564200052C2
:10172E003A2025640A0D002564206973206E6F74BB
:10173E002061204275666665722E205254532066D3
:10174E00756E6374696F6E206572726F72002578A4
:10175E00006D657373616765207265636569766593
:10176E0064200D00494E434F4D494E47204441548D
:10177E004120425954453A200D0A20646174615B40
:10178E0025645D3A202563200D0A2069643A2025E0
:10179E00640D0A0049276D204E4F444520310D003F
:1017AE00506C61790053657474696E67730043728F
:0C17BE0065646974730041626F7574000B
:00000001FF
