S00F000054544B343135352E7372656353
S11300000C94B4010C9488050C94BF030C94B003B5
S11300100C94D1010C94D1010C94D1010C94D10114
S11300200C94D1010C94D1010C94D1010C94D10104
S11300300C94D1010C94D1010C94D1010C94D101F4
S11300400C94D1010C94D1010C94D1010C94D101E4
S11300500C94D1010C94D1010C94D1010C94D101D4
S11300600C94D1010C94D1010C94D1010C94D101C4
S1130070000000000000000000065F5F06000000B2
S11300800007070007070000147F7F147F7F140018
S1130090242E6B6B3A120000466630180C66620020
S11300A0307A4F5D377A48000407030000000000EF
S11300B0001C3E63410000000041633E1C00000040
S11300C0082A3E1C1C3E2A0808083E3E0808000078
S11300D000A0E0600000000008080808080800000C
S11300E000006060000000006030180C060301008E
S11300F03E7F594D7F3E000042427F7F40400000DA
S1130100627359496F660000226349497F360000D3
S1130110181C16137F7F1000276745457D390000A2
S11301203C7E4B4979300000036371190F070000CE
S1130130367F49497F360000064F49693F1E00005B
S113014000006C6C0000000000A0EC6C00000000DB
S1130150081C366341000000141414141414000025
S1130160004163361C080000020351590F060000C9
S11301703E7F415D5D1F1E007C7E13137E7C00006C
S1130180417F7F49497F36001C3E63414163220021
S1130190417F7F41637F1C00417F7F495D41630054
S11301A0417F7F491D0103001C3E6341517372006E
S11301B07F7F08087F7F000000417F7F41000000AF
S11301C0307040417F3F0100417F7F081C7763000E
S11301D0417F7F41406070007F7F060C067F7F0077
S11301E07F7F060C187F7F001C3E6341633E1C002A
S11301F0417F7F49090F06001E3F21717F5E000089
S1130200417F7F19396F460026674D597B320000C4
S113021003417F7F410300007F7F40407F7F0000D8
S11302201F3F60603F1F00007F7F3018307F7F00DA
S113023063771C081C776300074F78784F0700002A
S11302406773594D47637100007F7F41410000008F
S11302500103060C183060000041417F7F0000005C
S1130260080C0603060C0800808080808080808053
S11302700000030704000000207454543C7840003C
S1130280413F7F44447C3800387C44446C2800005F
S1130290307848493F7F4000387C54545C18000053
S11302A0487E7F490302000098BCA4A4F87C0400A3
S11302B0417F7F08047C780000447D7D400000007D
S11302C040C484FD7D000000417F7F10386C4400F1
S11302D000417F7F400000007C7C0C180C7C78007F
S11302E07C7C04047C780000387C44447C38000026
S11302F084FCF8A4243C1800183C24A4F8FC8400D2
S1130300447C78441C180000485C54547424000055
S113031000043E7F442400003C7C40403C7C400080
S11303201C3C60603C1C00003C7C6030607C3C00F9
S1130330446C3810386C44009CBCA0A0FC7C0000C9
S11303404C64745C4C64000008083E774141000032
S113035000000077770000004141773E0808000064
S1130360020301030203010011241FBECFEFD4E0F6
S1130370DEBFCDBF13E0A0E0B1E0EEE2F5E102C0E4
S113038005900D92AE31B107D9F723E0AEE1B3E0A9
S113039001C01D92AA32B207E1F70E94B0050C9485
S11303A0950A0C9400005D9BFECF8CB980E090E030
S11303B008955F9BFECF8CB190E0089590BD89B9FC
S11303C088E18AB986E880BD69ED71E083ED91E04A
S11303D00E94F805089585B7806885BF80B780625C
S11303E080BF089581E080BF87BB83B7896183BFE5
S11303F084E081BF08958068E1E0F4E1808383EFC5
S113040091E00197F1F700C0000080810895806BAE
S1130410E0911501F091160180830895982F9F7043
S1130420E0911501F0911601908382958F70805FA1
S1130430E0911501F091160180830895CF93C62FA2
S11304400E9407028C2F0E940E02CF910895CF9331
S1130450C82F60E00E941E0280E890E02FEFE09138
S11304601301F091140120830197C9F78C2F0E9486
S11304700702CF910895CF9360E080E00E941E02AE
S1130480C0E060E08C2F0E941E0280E0E091130126
S1130490F091140110828F5F8038C1F7CF5FC830AC
S11304A081F760E080E00E941E02CF910895E09100
S11304B01501F09116018EEA8083E0911501F09107
S11304C0160181EA8083E0911501F09116018AED0D
S11304D08083E0911501F091160182E18083E0911F
S11304E01501F091160188EC8083E0911501F091DB
S11304F0160188EA8083E0911501F09116018FE3DB
S11305008083E0911501F091160185ED8083E091DF
S11305101501F091160180E88083E0911501F091B6
S1130520160181E88083E0911501F091160180E5C0
S11305308083E0911501F091160189ED8083E091AB
S11305401501F091160181E28083E0911501F0918B
S1130550160180E28083E0911501F091160182E09A
S11305608083E0911501F09116018BED8083E09179
S11305701501F091160180E38083E0911501F0915B
S113058016018DEA8083E0911501F0911601108225
S1130590E0911501F091160184EA8083E091150140
S11305A0F091160186EA8083E0911501F09116011D
S11305B08FEA80830E943B020895CF93C82F862F31
S11305C0642F0E941E022C2F30E0F901EE0FFF1F52
S11305D0EE0FFF1FEE0FFF1FE059F040220F331FF5
S11305E0220F331F220F331F285830408491A091CB
S11305F01301B09114018C933196E217F307B1F70C
S1130600CF910895EF92FF920F931F93CF93DF93AF
S1130610D42F262F30E0213131051CF4611107C09D
S11306201BC040E06D2F8EE70E94DD0215C08C01D7
S11306306150E62EF12C2FEFE21AF20AE80EF91EB1
S1130640C0E04C2F6D2FF80181918F010E94DD02D3
S1130650C85F0E151F05A9F7DF91CF911F910F9168
S1130660FF90EF900895CF939FEF980F963078F412
S1130670C82F6091060148E780E20E94DD02C09322
S113068006016091060148E78CE30E94DD02CF91E8
S113069008950F931F93CF93811117C00E942702CF
S11306A007E011E0C0E0CF5F4C2FF8016281808148
S11306B091810E9402030D5F1F4FC430A1F787E0B0
S11306C00E94270281E00E943303CF911F910F9172
S11306D00895C29ABA9A0895CF9381E00E94FB01CB
S11306E0C82F80E00E94FB01282F4C2F50E0BA0154
S11306F0645A710930E0C901845A9109CF9108956F
S1130700CF93DF930E946C03C82FD92F7F936F93ED
S113071083E192E09F938F930E944306DF93CF93EC
S11307208AE192E09F938F930E9443068DB79EB710
S113073008960FB6F8949EBF0FBE8DBFDF91CF9180
S11307400895F89485B7826085BF85B78C6085BFAE
S113075086B7816086BF8BB7806E8BBF789408950F
S11307601F920F920FB60F9211248F9381E0809302
S11307701F038F910F900FBE0F901F9018951F921B
S11307800F920FB60F9211248F9381E080931E0372
S11307908F910F900FBE0F901F901895C4980895D5
S11307A0C49A089580EB87BBBE9881E58DB90E94F9
S11307B0D00308958FB9779BFECF08951FB8779B18
S11307C0FECF8FB10895CF93C82F0E94CE0383E04C
S11307D00E94DA038C2F0E94DA030E94DE03C82FE2
S11307E00E94D0038C2FCF910895CF93DF93D82FFD
S11307F0C62F0E94CE0382E00E94DA038D2F0E944E
S1130800DA038C2F0E94DA030E94D003DF91CF9188
S11308100895CF93C82F8FE78C0F823020F0C4380F
S113082011F0C73841F40E94CE038C2F0E94DA03E2
S11308300E94D0030CC01F92CF9387E692E09F934F
S11308408F930E9443060F900F900F900F90CF91BB
S11308500895CF930E94CE0380EA0E94DA030E9497
S1130860DE03C82F0E94D0038C2FCF9108951F93CD
S1130870CF93DF93182FD62FC42F0E94CE0385E089
S11308800E94DA03812F0E94DA038D2F0E94DA037B
S11308908C2F0E94DA030E94D003DF91CF911F9125
S11308A008950E94CE0380EC0E94DA030E94D003D4
S11308B00895482F60EE8FE00E9437040895CF9387
S11308C0C82F0E9451048EE00E94E3031F928F936D
S11308D08EE892E09F938F930E94430661E088E242
S11308E00E94F50365EB89E20E94F50363E08AE266
S11308F00E94F5038C2F0E94590463E08BE20E944E
S1130900F5030F900F900F900F90CF910895CF9211
S1130910DF92EF92FF920F931F93CF93DF93CDB7A4
S1130920DEB72C970FB6F894DEBF0FBECDBFE982B9
S1130930FA820B831C832D833E834F8358876987F8
S11309407A878B879C87C980DA800B811C81B801E8
S113095076956795769567957695679581E30E9478
S1130960F503602F6295660F607E82E30E94F503B3
S11309706C2D85E30E94F503C114D10439F110E014
S11309800F2EF1E9EF2EF2E0FF2EF02DE5E0F0E07E
S1130990EC0FFD1FE10FF11D0081602F86E3810F35
S11309A00E94F503802F002E000C990B9F930F9348
S11309B0FF92EF920E9443061F5F812F90E00F90F9
S11309C00F900F900F908C159D0500F381E192E03C
S11309D00E94590681E80E9409042C960FB6F894E7
S11309E0DEBF0FBECDBFDF91CF911F910F91FF905E
S11309F0EF90DF90CF9008951F928F931F926F9383
S1130A001F924F9382EB92E09F938F930E94430631
S1130A108DB79EB708960FB6F8949EBF0FBE8DBFD4
S1130A200895EF92FF920F931F93CF930E9429048E
S1130A3080FF32C081E60E94E303082F82E60E9411
S1130A40E30310E0000F111F000F111F000F111F0F
S1130A50829586958770082B85E60E94E303E82E2D
S1130A60F12CE114F10499F0C0E086E68C0F0E94A9
S1130A70E3034C2F50E0682F880F770BC8010E94C6
S1130A80FC04CF5F2C2F30E02E153F0570F340E0BF
S1130A9061E08CE20E9437040E94290481FF32C085
S1130AA081E70E94E303082F82E70E94E30310E03A
S1130AB0000F111F000F111F000F111F8295869543
S1130AC08770082B85E70E94E303E82EF12CE114DC
S1130AD0F10499F0C0E086E78C0F0E94E3034C2FE9
S1130AE050E0682F880F770BC8010E94FC04CF5F89
S1130AF02C2F30E02E153F0570F340E062E08CE2CD
S1130B000E943704CF911F910F91FF90EF900895A9
S1130B101F920F920FB60F9211242F933F934F936E
S1130B205F936F937F938F939F93AF93BF93EF9351
S1130B30FF9382EE92E00E9459060E941105FF91F4
S1130B40EF91BF91AF919F918F917F916F915F9141
S1130B504F913F912F910F900FBE0F901F901895BA
S1130B60CF93DF93CDB7DEB72C970FB6F894DEBFE3
S1130B700FBECDBF8FE190E00E94DE010E94EB0129
S1130B800E9457020E94A1030E94F2010E9469037D
S1130B900E94D20380E00E94490380E00E945F0427
S1130BA082E090E09C838B839A83898385EF92E033
S1130BB00E9459060E946C03262F6D838E83E98060
S1130BC0FA800B811C81382F4F81588569857A857D
S1130BD08B859C850E9487040E9480032FE784E80C
S1130BE09EE1215080409040E1F700C00000E2CF38
S1130BF00F931F93CF93DF93009731F46115710521
S1130C0019F480E090E03AC08B01EC016EE070E0F2
S1130C1081E090E00E946A08FC01892B91F380E84E
S1130C2083830115110571F01387028781E883839B
S1130C308091200390912103892B21F4F0932103C7
S1130C40E09320032097C9F0D187C0878381826015
S1130C5083838091220390912303892B71F4F09371
S1130C602303E09322038091240390912503892B8D
S1130C7021F4F0932503E0932403CF01DF91CF9176
S1130C801F910F910895A0E0B0E0E9E4F6E00C9420
S1130C906E0AAE014B5F5F4FFA0161917191AF0132
S1130CA080912203909123030E948906E2E00C9430
S1130CB08A0A0F931F93CF93DF93E0912203F0915D
S1130CC02303238121FF1BC08C01D0E0C0E0F80185
S1130CD081918F016091220370912303DB011896A7
S1130CE0ED91FC911997882331F00995892B79F3BB
S1130CF0DFEFCFEFECCF8AE00995892B19F08FEF66
S1130D009FEF02C08D2F9C2FDF91CF911F910F91E8
S1130D100895ABE0B0E0EFE8F6E00C945E0A6C01F5
S1130D207B018A01FC0117821682838181FFCCC179
S1130D30CE0101963C01F6019381F70193FD859163
S1130D4093FF81917F01882309F4BAC1853239F474
S1130D5093FD859193FF81917F01853229F4B6013A
S1130D6090E00E94C409E7CF912C212C312CFFE1A3
S1130D70F315D8F08B3279F038F4803279F083327D
S1130D80A1F4232D20611DC08D3261F0803369F4FC
S1130D90232D216016C0832D8260382EE32DE4605C
S1130DA03E2E2AC0F32DF8601DC037FC2DC020ED67
S1130DB0280F2A3040F08E32B9F436FC81C1232D3D
S1130DC02064322E19C036FE06C08AE0989E200D9B
S1130DD01124922E11C0EAE02E9E200D1124222E01
S1130DE0F32DF0623F2E08C08C3621F4832D8068E9
S1130DF0382E02C0883641F4F70193FD859193FFA4
S1130E0081917F018111B3CF982F9F7D95549330A9
S1130E1028F40C5F1F4F9FE399830DC0833631F094
S1130E20833771F0833509F059C021C0F8018081FE
S1130E3089830E5F1F4F88248394912C530113C020
S1130E402801F2E04F0E511CF801A080B18036FE5B
S1130E5003C0692D70E002C06FEF7FEFC5010E94EF
S1130E60B9094C018201F32DFF773F2E16C02801EA
S1130E7022E0420E511CF801A080B18036FE03C06E
S1130E80692D70E002C06FEF7FEFC5010E94A709D2
S1130E904C01F32DF0683F2E820133FC1BC0822DE0
S1130EA090E088169906B0F4B60180E290E00E94C2
S1130EB0C4092A94F4CFF50137FC859137FE81915A
S1130EC05F01B60190E00E94C40921102A9421E038
S1130ED0821A91088114910471F7E8C0843611F0E4
S1130EE0893641F5F80137FE07C06081718182813E
S1130EF093810C5F1F4F08C060817181072E000C25
S1130F00880B990B0E5F1F4FF32DFF763F2E97FF33
S1130F1009C090958095709561957F4F8F4F9F4F35
S1130F20F0683F2E2AE030E0A3010E94000A882ED8
S1130F30861845C0853731F4232D2F7EB22E2AE042
S1130F4030E025C0932D997FB92E8F36C1F018F467
S1130F50883579F0B5C0803719F0883721F0B0C0F2
S1130F60E92FE061BE2EB4FE0DC0FB2DF460BF2E50
S1130F7009C034FE0AC0292F2660B22E06C028E01C
S1130F8030E005C020E130E002C020E132E0F801A9
S1130F90B7FE07C060817181828193810C5F1F4F0E
S1130FA006C06081718180E090E00E5F1F4FA30155
S1130FB00E94000A882E8618FB2DFF773F2E36FEEE
S1130FC00DC0232D2E7FA22E891458F434FE0BC09D
S1130FD032FC09C0832D8E7EA82E05C0B82CA32C0C
S1130FE003C0B82C01C0B92CA4FE0FC0FE01E80D4B
S1130FF0F11D8081803321F49A2D997EA92E09C098
S1131000A2FE06C0B394B39404C08A2D867809F076
S1131010B394A3FC11C0A0FE06C0B21488F4280C3B
S1131020922C9B180EC0B21460F4B60180E290E0DA
S11310300E94C409B394F7CFB21418F42B1802C059
S1131040982C212CA4FE10C0B60180E390E00E94ED
S1131050C409A2FE17C0A1FC03C088E790E002C047
S113106088E590E0B6010CC08A2D867859F0A1FE7F
S113107002C08BE201C080E2A7FC8DE2B60190E0E1
S11310800E94C409891438F4B60180E390E00E94F8
S1131090C4099A94F7CF8A94F301E80DF11D808175
S11310A0B60190E00E94C4098110F5CF222009F412
S11310B042CEB60180E290E00E94C4092A94F6CFA1
S11310C0F6018681978102C08FEF9FEF2B96E2E1B4
S11310D00C947A0A0F931F93CF93DF93869F80011A
S11310E0879F100D969F100D1124C8010E94860839
S11310F0EC01009729F0A80160E070E00E94B209B9
S1131100CE01DF91CF911F910F9108950F931F93FB
S1131110CF93DF938230910510F482E090E0E09168
S11311202803F091290320E030E0A0E0B0E03097FC
S113113019F1408151810281138148175907C8F080
S11311408417950769F4109731F012960C9312974F
S113115013961C9327C0009328031093290322C0DD
S11311602115310519F04217530718F49A01BD01EE
S1131170EF01DF01F801DBCF21153105F9F0281B60
S1131180390B2430310580F48A819B816115710506
S113119021F0FB019383828304C0909329038093FD
S11311A02803FE01329644C0FE01E20FF31F81932F
S11311B0919322503109398328833AC02091260320
S11311C030912703232B41F4209102013091030134
S11311D030932703209326032091000130910101CD
S11311E02115310541F42DB73EB7409104015091CA
S11311F00501241B350BE0912603F0912703E21728
S1131200F307A0F42E1B3F0B2817390778F0AC0125
S11312104E5F5F4F2417350748F04E0F5F1F509302
S11312202703409326038193919302C0E0E0F0E00A
S1131230CF01DF91CF911F910F910895CF93DF9349
S1131240009709F481C0FC01329713821282A091A5
S11312502803B0912903109781F420813181820FF2
S1131260931F20912603309127032817390751F53E
S1131270F0932703E093260367C0ED0120E030E0FC
S1131280CE17DF0740F44A815B819E014115510569
S1131290F1F0EA01F5CFD383C28340815181840FF9
S11312A0951FC817D90759F488819981840F951F10
S11312B00296918380838A819B8193838283211503
S11312C0310529F4F0932903E09328033DC0E90193
S11312D0FB83EA8349915991C40FD51FEC17FD078D
S11312E061F480819181840F951F0296E9019983AD
S11312F08883828193819B838A83E0E0F0E0129665
S11313008D919C911397009719F0FD01DC01F7CFA3
S11313108D919C9111979D012E5F3F4F820F931FDA
S113132020912603309127032817390769F4309751
S113133029F4109229031092280302C01382128206
S1131340B0932703A0932603DF91CF910895FC0166
S11313500590615070400110D8F7809590958E0FDC
S11313609F1F0895DC0101C06D9341505040E0F788
S11313700895FC016150704001900110D8F78095E8
S113138090958E0F9F1F08950F931F93CF93DF9314
S1131390FB01238121FD03C08FEF9FEF2CC022FFAF
S11313A016C046815781248135814217530744F47E
S11313B0A081B1819D012F5F3F4F318320838C93A6
S11313C0268137812F5F3F4F3783268314C08B01DB
S11313D0EC01FB010084F185E02D0995892BE1F6F0
S11313E0D80116968D919C911797019617969C9308
S11313F08E931697CE01DF91CF911F910F9108958F
S1131400FA01AA27283051F1203181F1E8946F9331
S11314106E7F6E5F7F4F8F4F9F4FAF4FB1E03ED0D7
S1131420B4E03CD0670F781F891F9A1FA11D680F75
S1131430791F8A1F911DA11D6A0F711D811D911DA8
S1131440A11D20D009F468943F912AE0269F11241D
S11314503019305D3193DEF6CF010895462F477081
S1131460405D4193B3E00FD0C9F7F6CF462F4F70DC
S1131470405D4A3318F0495D31FD4052419302D03A
S1131480A9F7EACFB4E0A6959795879577956795E0
S1131490BA95C9F700976105710508959B01AC01E0
S11314A00A2E06945795479537952795BA95C9F707
S11314B0620F731F841F951FA01D08952F923F92E2
S11314C04F925F926F927F928F929F92AF92BF9250
S11314D0CF92DF92EF92FF920F931F93CF93DF93FC
S11314E0CDB7DEB7CA1BDB0B0FB6F894DEBF0FBE59
S11314F0CDBF09942A88398848885F846E847D84A6
S11315008C849B84AA84B984C884DF80EE80FD80A7
S11315100C811B81AA81B981CE0FD11D0FB6F8941D
S1111520DEBF0FBECDBFED010895F894FFCFDE
S113152E00002A032000010103040603080F030729
S113153E170305001200105374617274696E6720EC
S113154E5352414D20746573742E2E2E0D00577216
S113155E697465207068617365206572726F723A82
S113156E206578745F72616D5B2534645D203D2067
S113157E25303258202873686F756C64206265209C
S113158E25303258290D0A005265747269657661E8
S113159E6C207068617365206572726F723A206593
S11315AE78745F72616D5B2534645D203D20253057
S11315BE3258202873686F756C642062652025305C
S11315CE3258290D0A005352414D2074657374200C
S11315DE636F6D706C657465642077697468200D33
S11315EE0A253464206572726F727320696E2077D7
S11315FE7269746520706861736520616E64200D74
S113160E0A253464206572726F727320696E2072BB
S113161E657472696576616C2070686173650D0A14
S113162E004368616E6E656C2025643A2025642043
S113163E0A0D00783A2025642000793A2025640AA0
S113164E0D0049444C4520004C4546542000524957
S113165E474854200049444C450D00444F574E0D05
S113166E0055500D00524947485420420A0D004C73
S113167E45465420420A0D004C3A2025642000525F
S113168E3A2025640A0D002564206973206E6F7458
S113169E2061204275666665722E20525453206670
S11316AE756E6374696F6E206572726F7200257841
S11316BE000D0A53454E44494E47204D4553534160
S11316CE47453A200D0A20646174613A2025640D61
S11316DE0A00494E434F4D494E4720444154412040
S11316EE425954453A200D0A20646174615B2564A5
S11316FE5D3A202563200D0A2069643A2025640D85
S113170E0A006D657373616765207265636569763A
S113171E6564200D0049276D204E4F444520310D40
S113172E00506C61790053657474696E677300437D
S111173E7265646974730041626F7574000013
S9030000FC
